:100000000C942A000C9434000C9434000C943400AA
:100010000C9434000C9434000C9434000C94340090
:100020000C9434000C9434000C9434000C94340080
:100030000C9434000C9434000C9434000C94340070
:100040000C9434000C9434000C9434000C94340060
:100050000C94340011241FBECFE5D4E0DEBFCDBF29
:100060000E944C000C9462000C94000083B984E858
:1000700086BF06B607FEFDCF089584EA86BF06B6A2
:1000800007FEFDCF089584E986BF089511B887E47F
:1000900080B984E086BF089580E29EE429E130E0E3
:1000A000F9013197F1F70197D9F70E9446000E94B4
:1000B0003D0080E10E94360089E70E9436000E94E0
:0800C0004300FFCFF894FFCFCD
:00000001FF
