:100000000C942A000C943C000C943C000C943C0092
:100010000C943C000C943C000C943C000C943C0070
:100020000C943C000C943C000C9437080C943C005D
:100030000C943C000C943C000C943C000C943C0050
:100040000C943C000C943C000C943C000C943C0040
:100050000C943C0011241FBECFE5D8E0DEBFCDBF1D
:1000600010E0A0E6B0E001C01D92AF36B107E1F7A5
:100070000E9485080C94EF080C940000DF93CF9346
:1000800000D000D0CDB7DEB789836A838981282F5D
:1000900030E03C832B838B819C818130910549F139
:1000A0002B813C81223031052CF48B819C8100977F
:1000B00061F05AC02B813C812230310571F18B8176
:1000C0009C8183309105E9F14FC0ABE3B0E0EBE3F5
:1000D000F0E08081482F8A81282F30E081E090E095
:1000E000022E02C0880F991F0A94E2F7842B8C938A
:1000F0003BC0A8E3B0E0E8E3F0E08081482F8A81CC
:10010000282F30E081E090E0022E02C0880F991F76
:100110000A94E2F7842B8C9327C0A5E3B0E0E5E3D3
:10012000F0E08081482F8A81282F30E081E090E044
:10013000022E02C0880F991F0A94E2F7842B8C9339
:1001400013C0A2E3B0E0E2E3F0E08081482F8A81AF
:10015000282F30E081E090E0022E02C0880F991F26
:100160000A94E2F7842B8C930F900F900F900F90CE
:10017000CF91DF910895DF93CF9300D000D0CDB71A
:10018000DEB789836A838981282F30E03C832B8303
:100190008B819C818130910559F12B813C812230EA
:1001A00031052CF48B819C81009769F05FC02B8115
:1001B0003C812230310589F18B819C81833091050E
:1001C00009F440C053C0ABE3B0E0EBE3F0E0808162
:1001D000482F8A81282F30E081E090E0022E02C073
:1001E000880F991F0A94E2F7809584238C933EC070
:1001F000A8E3B0E0E8E3F0E08081482F8A81282F6F
:1002000030E081E090E0022E02C0880F991F0A942E
:10021000E2F7809584238C9329C0A5E3B0E0E5E361
:10022000F0E08081482F8A81282F30E081E090E043
:10023000022E02C0880F991F0A94E2F7809584234A
:100240008C9314C0A2E3B0E0E2E3F0E08081482F99
:100250008A81282F30E081E090E0022E02C0880FD2
:10026000991F0A94E2F7809584238C930F900F9046
:100270000F900F90CF91DF910895DF93CF9300D02F
:1002800000D0CDB7DEB789836A838981282F30E01B
:100290003C832B838B819C818130910549F12B819B
:1002A0003C81223031052CF48B819C81009761F0D8
:1002B0005AC02B813C812230310571F18B819C81A8
:1002C00083309105E9F14FC0ABE3B0E0EBE3F0E040
:1002D0008081482F8A81282F30E081E090E0022E33
:1002E00002C0880F991F0A94E2F784278C933BC0C1
:1002F000A8E3B0E0E8E3F0E08081482F8A81282F6E
:1003000030E081E090E0022E02C0880F991F0A942D
:10031000E2F784278C9327C0A5E3B0E0E5E3F0E0A3
:100320008081482F8A81282F30E081E090E0022EE2
:1003300002C0880F991F0A94E2F784278C9313C098
:10034000A2E3B0E0E2E3F0E08081482F8A81282F29
:1003500030E081E090E0022E02C0880F991F0A94DD
:10036000E2F784278C930F900F900F900F90CF910E
:10037000DF910895DF93CF9300D000D00F92CDB7D7
:10038000DEB78A836B838A81282F30E03D832C83FC
:100390004C815D8141305105B1F18C819D8182306C
:1003A000910534F42C813D812115310571F084C013
:1003B0004C815D814230510509F443C08C819D819F
:1003C0008330910509F45BC077C0E9E3F0E08081F8
:1003D000482F50E08B81282F30E081E090E002C070
:1003E000880F991F2A95E2F79A01282339238B81D8
:1003F000882F90E0A90102C0559547958A95E2F7AC
:10040000CA01898359C0E6E3F0E08081482F50E0BB
:100410008B81282F30E081E090E002C0880F991F87
:100420002A95E2F79A01282339238B81882F90E0BF
:10043000A90102C0559547958A95E2F7CA018983BB
:100440003BC0E3E3F0E08081482F50E08B81282F10
:1004500030E081E090E002C0880F991F2A95E2F712
:100460009A01282339238B81882F90E0A90102C0AB
:10047000559547958A95E2F7CA0189831DC0E0E347
:10048000F0E08081482F50E08B81282F30E081E020
:1004900090E002C0880F991F2A95E2F79A0128235D
:1004A00039238B81882F90E0A90102C0559547958B
:1004B0008A95E2F7CA01898389810F900F900F9086
:1004C0000F900F90CF91DF910895DF93CF9300D0DD
:1004D0000F92CDB7DEB789838981282F30E03B8327
:1004E0002A838A819B8181309105D1F02A813B81C9
:1004F000223031052CF48A819B81009761F01EC067
:100500002A813B812230310581F08A819B818330B1
:10051000910581F013C0EBE3F0E08FEF80830EC014
:10052000E8E3F0E08FEF808309C0E5E3F0E08FEFD0
:10053000808304C0E2E3F0E08FEF80830F900F90A0
:100540000F90CF91DF910895DF93CF9300D00F925A
:10055000CDB7DEB789838981282F30E03B832A839A
:100560008A819B8181309105C9F02A813B812230AB
:1005700031052CF48A819B81009761F01AC02A8191
:100580003B812230310571F08A819B818330910556
:1005900069F00FC0EBE3F0E010820BC0E8E3F0E09D
:1005A000108207C0E5E3F0E0108203C0E2E3F0E070
:1005B00010820F900F900F90CF91DF910895DF93ED
:1005C000CF93CDB7DEB72D970FB6F894DEBF0FBE31
:1005D000CDBF89836A834B838981282F30E03D8793
:1005E0002C878C859D858130910509F44FC02C8521
:1005F0003D85223031052CF48C859D85009771F066
:10060000ECC02C853D852230310509F477C08C85FE
:100610009D858330910509F4A9C0DFC08B81282F07
:1006200030E03B872A878A859B85009731F02A85B1
:100630003B8521303105B1F0D0C0AAE3B0E0EAE358
:10064000F0E08081482F8A81282F30E081E090E01F
:10065000022E02C0880F991F0A94E2F78095842326
:100660008C93BBC0AAE3B0E0EAE3F0E08081482FBE
:100670008A81282F30E081E090E0022E02C0880FAE
:10068000991F0A94E2F7842B8C93A7C08B81282FA3
:1006900030E03987288788859985009731F028854B
:1006A000398521303105B1F098C0A7E3B0E0E7E328
:1006B000F0E08081482F8A81282F30E081E090E0AF
:1006C000022E02C0880F991F0A94E2F780958423B6
:1006D0008C9383C0A7E3B0E0E7E3F0E08081482F8C
:1006E0008A81282F30E081E090E0022E02C0880F3E
:1006F000991F0A94E2F7842B8C936FC08B81282F6B
:1007000030E03F832E838E819F81009731F02E81D0
:100710003F8121303105B1F060C0A4E3B0E0E4E3F3
:10072000F0E08081482F8A81282F30E081E090E03E
:10073000022E02C0880F991F0A94E2F78095842345
:100740008C934BC0A4E3B0E0E4E3F0E08081482F59
:100750008A81282F30E081E090E0022E02C0880FCD
:10076000991F0A94E2F7842B8C9337C08B81282F32
:1007700030E03D832C838C819D81009731F02C816A
:100780003D8121303105B1F028C0A1E3B0E0E1E3C3
:10079000F0E08081482F8A81282F30E081E090E0CE
:1007A000022E02C0880F991F0A94E2F780958423D5
:1007B0008C9313C0A1E3B0E0E1E3F0E08081482F27
:1007C0008A81282F30E081E090E0022E02C0880F5D
:1007D000991F0A94E2F7842B8C932D960FB6F89408
:1007E000DEBF0FBECDBFCF91DF910895DF93CF93D2
:1007F000CDB7DEB72B970FB6F894DEBF0FBECDBFD7
:1008000089878985282F30E03B872A878A859B85C1
:1008100081309105A9F12A853B85223031052CF4E0
:100820008A859B85009771F084C02A853B8522309C
:10083000310509F443C08A859B858330910509F40D
:100840005BC077C018861F8215C0ABE3B0E0EBE356
:10085000F0E08081282F81E090E00F8002C0880FB7
:10086000991F0A94E2F782278C938F8198850196CD
:1008700098878F838F8198858830910534F359C08C
:100880001E821D8215C0A8E3B0E0E8E3F0E080819D
:10089000282F81E090E00D8002C0880F991F0A94F4
:1008A000E2F782278C938D819E8101969E838D83B2
:1008B0008D819E818830910534F33BC01C821B8260
:1008C00015C0A5E3B0E0E5E3F0E08081282F81E0EA
:1008D00090E00B8002C0880F991F0A94E2F78227EC
:1008E0008C938B819C8101969C838B838B819C81D3
:1008F0008830910534F31DC01A82198215C0A2E315
:10090000B0E0E2E3F0E08081282F81E090E0098010
:1009100002C0880F991F0A94E2F782278C9389817D
:100920009A8101969A83898389819A818830910579
:1009300034F32B960FB6F894DEBF0FBECDBFCF9128
:10094000DF910895DF93CF9300D000D0CDB7DEB70D
:1009500089836A838981282F30E03C832B838B81B4
:100960009C8181309105D1F02B813C812230310571
:100970002CF48B819C81009761F01EC02B813C81FF
:100980002230310581F08B819C818330910581F08B
:1009900013C0EBE3F0E08A8180830EC0E8E3F0E06F
:1009A0008A81808309C0E5E3F0E08A81808304C006
:1009B000E2E3F0E08A8180830F900F900F900F9018
:1009C000CF91DF910895DF93CF93CDB7DEB72C970A
:1009D0000FB6F894DEBF0FBECDBF89836A838981CD
:1009E000282F30E03C872B878B859C8581309105B3
:1009F00009F498C02B853C85223031052CF48B8579
:100A00009C85009771F010C22B853C852230310502
:100A100009F409C18B859C858330910509F484C153
:100A200003C28A81282F30E03A87298789859A85F1
:100A3000009731F029853A8521303105D1F1F4C193
:100A4000AAE3B0E0EAE3F0E080818E7F8C93AAE332
:100A5000B0E0EAE3F0E080818D7F8C93AAE3B0E020
:100A6000EAE3F0E080818B7F8C93AAE3B0E0EAE3D5
:100A7000F0E08081877F8C93AAE3B0E0EAE3F0E0C6
:100A800080818F7E8C93AAE3B0E0EAE3F0E080817E
:100A90008F7D8C93AAE3B0E0EAE3F0E080818F7B66
:100AA0008C93AAE3B0E0EAE3F0E080818F778C9347
:100AB000BBC1AAE3B0E0EAE3F0E0808181608C93FF
:100AC000AAE3B0E0EAE3F0E0808182608C93AAE3DD
:100AD000B0E0EAE3F0E0808184608C93AAE3B0E0C8
:100AE000EAE3F0E0808188608C93AAE3B0E0EAE377
:100AF000F0E0808180618C93AAE3B0E0EAE3F0E06B
:100B0000808180628C93AAE3B0E0EAE3F0E0808128
:100B100080648C93AAE3B0E0EAE3F0E0808180682F
:100B20008C9382C18A81282F30E038872F838F8170
:100B30009885009731F02F81388521303105D1F12A
:100B400073C1A7E3B0E0E7E3F0E080818E7F8C9390
:100B5000A7E3B0E0E7E3F0E080818D7F8C93A7E32B
:100B6000B0E0E7E3F0E080818B7F8C93A7E3B0E017
:100B7000E7E3F0E08081877F8C93A7E3B0E0E7E3D1
:100B8000F0E080818F7E8C93A7E3B0E0E7E3F0E0B4
:100B900080818F7D8C93A7E3B0E0E7E3F0E0808174
:100BA0008F7B8C93A7E3B0E0E7E3F0E080818F7761
:100BB0008C933AC1A7E3B0E0E7E3F0E08081816085
:100BC0008C93A7E3B0E0E7E3F0E0808182608C9350
:100BD000A7E3B0E0E7E3F0E0808184608C93A7E3D3
:100BE000B0E0E7E3F0E0808188608C93A7E3B0E0B9
:100BF000E7E3F0E0808180618C93A7E3B0E0E7E376
:100C0000F0E0808180628C93A7E3B0E0E7E3F0E05E
:100C1000808180648C93A7E3B0E0E7E3F0E080811B
:100C200080688C9301C18A81282F30E03E832D8318
:100C30008D819E81009731F02D813E8121303105DB
:100C4000D1F1F2C0A4E3B0E0E4E3F0E080818E7F74
:100C50008C93A4E3B0E0E4E3F0E080818D7F8C939B
:100C6000A4E3B0E0E4E3F0E080818B7F8C93A4E325
:100C7000B0E0E4E3F0E08081877F8C93A4E3B0E010
:100C8000E4E3F0E080818F7E8C93A4E3B0E0E4E3C2
:100C9000F0E080818F7D8C93A4E3B0E0E4E3F0E0AA
:100CA00080818F7B8C93A4E3B0E0E4E3F0E080816B
:100CB0008F778C93B9C0A4E3B0E0E4E3F0E08081E7
:100CC00081608C93A4E3B0E0E4E3F0E08081826093
:100CD0008C93A4E3B0E0E4E3F0E0808184608C9343
:100CE000A4E3B0E0E4E3F0E0808188608C93A4E3C7
:100CF000B0E0E4E3F0E0808180618C93A4E3B0E0B5
:100D0000E4E3F0E0808180628C93A4E3B0E0E4E36C
:100D1000F0E0808180648C93A4E3B0E0E4E3F0E051
:100D2000808180688C9380C08A81282F30E03C834A
:100D30002B838B819C81009731F02B813C8121306A
:100D40003105D1F171C0A1E3B0E0E1E3F0E08081D1
:100D50008E7F8C93A1E3B0E0E1E3F0E080818D7FB2
:100D60008C93A1E3B0E0E1E3F0E080818B7F8C9392
:100D7000A1E3B0E0E1E3F0E08081877F8C93A1E321
:100D8000B0E0E1E3F0E080818F7E8C93A1E3B0E0FE
:100D9000E1E3F0E080818F7D8C93A1E3B0E0E1E3BB
:100DA000F0E080818F7B8C93A1E3B0E0E1E3F0E0A1
:100DB00080818F778C9338C0A1E3B0E0E1E3F0E06D
:100DC000808181608C93A1E3B0E0E1E3F0E0808179
:100DD00082608C93A1E3B0E0E1E3F0E08081846085
:100DE0008C93A1E3B0E0E1E3F0E0808188608C9334
:100DF000A1E3B0E0E1E3F0E0808180618C93A1E3C6
:100E0000B0E0E1E3F0E0808180628C93A1E3B0E0A8
:100E1000E1E3F0E0808180648C93A1E3B0E0E1E362
:100E2000F0E0808180688C932C960FB6F894DEBF3A
:100E30000FBECDBFCF91DF910895DF93CF930F9277
:100E4000CDB7DEB7198226C08981882F90E0880F40
:100E5000991F880F991FFC01ED59FF4F11821082D5
:100E60008981882F90E0880F991F0196880F991F1C
:100E7000FC01ED59FF4F10828981882F90E0880F87
:100E8000991F880F991FFC01EA59FF4F1082898131
:100E90008F5F898389818330B8F285E597E00E946E
:100EA00073080F90CF91DF910895DF93CF930F9246
:100EB000CDB7DEB719825BC08981282F30E0C90128
:100EC000880F991F880F991FFC01EA59FF4F8081F5
:100ED000482F4150C901880F991F880F991FFC01A5
:100EE000EA59FF4F40838981882F90E0880F991F2E
:100EF000880F991FFC01EA59FF4F80818823A1F5D3
:100F00008981882F90E0880F991F880F991FFC0115
:100F1000ED59FF4F80819181009731F18981882FB0
:100F200090E0880F991F880F991FFC01ED59FF4F22
:100F30000190F081E02D09958981482F50E0898149
:100F4000882F90E0880F991F0196880F991FFC0148
:100F5000ED59FF4F2081CA01880F991F880F991FF3
:100F6000FC01EA59FF4F208389818F5F8983898142
:100F7000833008F4A1CF0F90CF91DF910895DF93D4
:100F8000CF9300D00F92CDB7DEB79A8389836B835E
:100F90008B81882F90E0E981FA8120813181880F4F
:100FA000991F880F991FFC01ED59FF4F3183208352
:100FB0008B81882F90E0E981FA812281880F991F27
:100FC0000196880F991FFC01ED59FF4F20838B81FB
:100FD000882F90E0E981FA812381880F991F880F7B
:100FE000991FFC01EA59FF4F20830F900F900F903B
:100FF000CF91DF910895DF93CF93CDB7DEB7A3E50F
:10100000B0E0E3E5F0E0808188608C93A3E5B0E098
:10101000E3E5F0E080818F7B8C93ECE5F0E084E603
:101020008083A9E5B0E0E9E5F0E0808182608C93FF
:10103000AFE5B0E0EFE5F0E0808180688C93A3E558
:10104000B0E0E3E5F0E0808184608C93A3E5B0E05C
:10105000E3E5F0E080818D7F8C93A3E5B0E0E3E5EC
:10106000F0E080818E7F8C93CF91DF9108951F9265
:101070000F920FB60F9211242F933F934F935F93CC
:101080006F937F938F939F93AF93BF93EF93FF9350
:10109000DF93CF93CDB7DEB7809160008A3059F4EB
:1010A000E0916100F09162000995809160008F5F8E
:1010B0008093600005C0809160008F5F8093600026
:1010C000CF91DF91FF91EF91BF91AF919F918F9160
:1010D0007F916F915F914F913F912F910F900FBE34
:1010E0000F901F901895DF93CF9300D0CDB7DEB748
:1010F0009A83898389819A819093620080936100A9
:101100000F900F90CF91DF910895DF93CF9300D090
:1011100000D0CDB7DEB780E060E041E00E94DF02A2
:1011200081E060E041E00E94DF0281E061E041E0B7
:101130000E94DF0281E062E041E00E94DF020E9443
:10114000FB070E941D078EEC98E09A83898384E058
:101150008B8381E08C83CE01019660E070E00E9479
:10116000BF0789ED98E09A83898388E08B8381E0CB
:101170008C83CE01019661E070E00E94BF0784EE8F
:1011800098E09A83898382E08B8381E08C83CE010F
:10119000019662E070E00E94BF07FFCFDF93CF931C
:1011A000CDB7DEB781E060E00E943D01CF91DF91D5
:1011B0000895DF93CF93CDB7DEB781E061E00E9461
:1011C0003D01CF91DF910895DF93CF93CDB7DEB787
:1011D00081E062E00E943D01CF91DF910895F89493
:0211E000FFCF3F
:00000001FF
