:100000000C942A000C9434000C9434000C943400AA
:100010000C9434000C9434000C9434000C94340090
:100020000C9434000C9434000C9434000C94340080
:100030000C9434000C9434000C9434000C94340070
:100040000C9434000C9434000C9434000C94340060
:100050000C94340011241FBECFE5D8E0DEBFCDBF25
:100060000E94DB040C94FF040C940000DF93CF93F8
:1000700000D000D0CDB7DEB789836A838981282F6D
:1000800030E03C832B838B819C818130910549F149
:100090002B813C81223031052CF48B819C8100978F
:1000A00061F05AC02B813C812230310571F18B8186
:1000B0009C8183309105E9F14FC0ABE3B0E0EBE305
:1000C000F0E08081482F8A81282F30E081E090E0A5
:1000D000022E02C0880F991F0A94E2F7842B8C939A
:1000E0003BC0A8E3B0E0E8E3F0E08081482F8A81DC
:1000F000282F30E081E090E0022E02C0880F991F87
:100100000A94E2F7842B8C9327C0A5E3B0E0E5E3E3
:10011000F0E08081482F8A81282F30E081E090E054
:10012000022E02C0880F991F0A94E2F7842B8C9349
:1001300013C0A2E3B0E0E2E3F0E08081482F8A81BF
:10014000282F30E081E090E0022E02C0880F991F36
:100150000A94E2F7842B8C930F900F900F900F90DE
:10016000CF91DF910895DF93CF9300D000D0CDB72A
:10017000DEB789836A838981282F30E03C832B8313
:100180008B819C818130910559F12B813C812230FA
:1001900031052CF48B819C81009769F05FC02B8125
:1001A0003C812230310589F18B819C81833091051E
:1001B00009F440C053C0ABE3B0E0EBE3F0E0808172
:1001C000482F8A81282F30E081E090E0022E02C083
:1001D000880F991F0A94E2F7809584238C933EC080
:1001E000A8E3B0E0E8E3F0E08081482F8A81282F7F
:1001F00030E081E090E0022E02C0880F991F0A943F
:10020000E2F7809584238C9329C0A5E3B0E0E5E371
:10021000F0E08081482F8A81282F30E081E090E053
:10022000022E02C0880F991F0A94E2F7809584235A
:100230008C9314C0A2E3B0E0E2E3F0E08081482FA9
:100240008A81282F30E081E090E0022E02C0880FE2
:10025000991F0A94E2F7809584238C930F900F9056
:100260000F900F90CF91DF910895DF93CF9300D03F
:1002700000D0CDB7DEB789836A838981282F30E02B
:100280003C832B838B819C818130910549F12B81AB
:100290003C81223031052CF48B819C81009761F0E8
:1002A0005AC02B813C812230310571F18B819C81B8
:1002B00083309105E9F14FC0ABE3B0E0EBE3F0E050
:1002C0008081482F8A81282F30E081E090E0022E43
:1002D00002C0880F991F0A94E2F784278C933BC0D1
:1002E000A8E3B0E0E8E3F0E08081482F8A81282F7E
:1002F00030E081E090E0022E02C0880F991F0A943E
:10030000E2F784278C9327C0A5E3B0E0E5E3F0E0B3
:100310008081482F8A81282F30E081E090E0022EF2
:1003200002C0880F991F0A94E2F784278C9313C0A8
:10033000A2E3B0E0E2E3F0E08081482F8A81282F39
:1003400030E081E090E0022E02C0880F991F0A94ED
:10035000E2F784278C930F900F900F900F90CF911E
:10036000DF910895DF93CF9300D000D00F92CDB7E7
:10037000DEB78A836B838A81282F30E03D832C830C
:100380004C815D8141305105B1F18C819D8182307C
:10039000910534F42C813D812115310571F084C023
:1003A0004C815D814230510509F443C08C819D81AF
:1003B0008330910509F45BC077C0E9E3F0E0808108
:1003C000482F50E08B81282F30E081E090E002C080
:1003D000880F991F2A95E2F79A01282339238B81E8
:1003E000882F90E0A90102C0559547958A95E2F7BC
:1003F000CA01898359C0E6E3F0E08081482F50E0CC
:100400008B81282F30E081E090E002C0880F991F97
:100410002A95E2F79A01282339238B81882F90E0CF
:10042000A90102C0559547958A95E2F7CA018983CB
:100430003BC0E3E3F0E08081482F50E08B81282F20
:1004400030E081E090E002C0880F991F2A95E2F722
:100450009A01282339238B81882F90E0A90102C0BB
:10046000559547958A95E2F7CA0189831DC0E0E357
:10047000F0E08081482F50E08B81282F30E081E030
:1004800090E002C0880F991F2A95E2F79A0128236D
:1004900039238B81882F90E0A90102C0559547959B
:1004A0008A95E2F7CA01898389810F900F900F9096
:1004B0000F900F90CF91DF910895DF93CF9300D0ED
:1004C0000F92CDB7DEB789838981282F30E03B8337
:1004D0002A838A819B8181309105D1F02A813B81D9
:1004E000223031052CF48A819B81009761F01EC077
:1004F0002A813B812230310581F08A819B818330C2
:10050000910581F013C0EBE3F0E08FEF80830EC024
:10051000E8E3F0E08FEF808309C0E5E3F0E08FEFE0
:10052000808304C0E2E3F0E08FEF80830F900F90B0
:100530000F90CF91DF910895DF93CF9300D00F926A
:10054000CDB7DEB789838981282F30E03B832A83AA
:100550008A819B8181309105C9F02A813B812230BB
:1005600031052CF48A819B81009761F01AC02A81A1
:100570003B812230310571F08A819B818330910566
:1005800069F00FC0EBE3F0E010820BC0E8E3F0E0AD
:10059000108207C0E5E3F0E0108203C0E2E3F0E080
:1005A00010820F900F900F90CF91DF910895DF93FD
:1005B000CF93CDB7DEB72D970FB6F894DEBF0FBE41
:1005C000CDBF89836A834B838981282F30E03D87A3
:1005D0002C878C859D858130910509F44FC02C8531
:1005E0003D85223031052CF48C859D85009771F076
:1005F000ECC02C853D852230310509F477C08C850F
:100600009D858330910509F4A9C0DFC08B81282F17
:1006100030E03B872A878A859B85009731F02A85C1
:100620003B8521303105B1F0D0C0AAE3B0E0EAE368
:10063000F0E08081482F8A81282F30E081E090E02F
:10064000022E02C0880F991F0A94E2F78095842336
:100650008C93BBC0AAE3B0E0EAE3F0E08081482FCE
:100660008A81282F30E081E090E0022E02C0880FBE
:10067000991F0A94E2F7842B8C93A7C08B81282FB3
:1006800030E03987288788859985009731F028855B
:10069000398521303105B1F098C0A7E3B0E0E7E338
:1006A000F0E08081482F8A81282F30E081E090E0BF
:1006B000022E02C0880F991F0A94E2F780958423C6
:1006C0008C9383C0A7E3B0E0E7E3F0E08081482F9C
:1006D0008A81282F30E081E090E0022E02C0880F4E
:1006E000991F0A94E2F7842B8C936FC08B81282F7B
:1006F00030E03F832E838E819F81009731F02E81E1
:100700003F8121303105B1F060C0A4E3B0E0E4E303
:10071000F0E08081482F8A81282F30E081E090E04E
:10072000022E02C0880F991F0A94E2F78095842355
:100730008C934BC0A4E3B0E0E4E3F0E08081482F69
:100740008A81282F30E081E090E0022E02C0880FDD
:10075000991F0A94E2F7842B8C9337C08B81282F42
:1007600030E03D832C838C819D81009731F02C817A
:100770003D8121303105B1F028C0A1E3B0E0E1E3D3
:10078000F0E08081482F8A81282F30E081E090E0DE
:10079000022E02C0880F991F0A94E2F780958423E5
:1007A0008C9313C0A1E3B0E0E1E3F0E08081482F37
:1007B0008A81282F30E081E090E0022E02C0880F6D
:1007C000991F0A94E2F7842B8C932D960FB6F89418
:1007D000DEBF0FBECDBFCF91DF910895DF93CF93E2
:1007E000CDB7DEB72B970FB6F894DEBF0FBECDBFE7
:1007F00089878985282F30E03B872A878A859B85D2
:1008000081309105A9F12A853B85223031052CF4F0
:100810008A859B85009771F084C02A853B852230AC
:10082000310509F443C08A859B858330910509F41D
:100830005BC077C018861F8215C0ABE3B0E0EBE366
:10084000F0E08081282F81E090E00F8002C0880FC7
:10085000991F0A94E2F782278C938F8198850196DD
:1008600098878F838F8198858830910534F359C09C
:100870001E821D8215C0A8E3B0E0E8E3F0E08081AD
:10088000282F81E090E00D8002C0880F991F0A9404
:10089000E2F782278C938D819E8101969E838D83C2
:1008A0008D819E818830910534F33BC01C821B8270
:1008B00015C0A5E3B0E0E5E3F0E08081282F81E0FA
:1008C00090E00B8002C0880F991F0A94E2F78227FC
:1008D0008C938B819C8101969C838B838B819C81E3
:1008E0008830910534F31DC01A82198215C0A2E325
:1008F000B0E0E2E3F0E08081282F81E090E0098021
:1009000002C0880F991F0A94E2F782278C9389818D
:100910009A8101969A83898389819A818830910589
:1009200034F32B960FB6F894DEBF0FBECDBFCF9138
:10093000DF910895DF93CF9300D000D0CDB7DEB71D
:1009400089836A838981282F30E03C832B838B81C4
:100950009C8181309105D1F02B813C812230310581
:100960002CF48B819C81009761F01EC02B813C810F
:100970002230310581F08B819C818330910581F09B
:1009800013C0EBE3F0E08A8180830EC0E8E3F0E07F
:100990008A81808309C0E5E3F0E08A81808304C016
:1009A000E2E3F0E08A8180830F900F900F900F9028
:1009B000CF91DF910895DF93CF930F92CDB7DEB73C
:1009C00080E060E040E00E94D70282E067E041E022
:1009D0000E94D70280E060E00E94B2018983898191
:1009E000813029F482E067E00E943600F3CF8981EC
:1009F000882381F782E067E00E94B300EBCFF89490
:020A0000FFCF26
:00000001FF
