:100000000C942A000C9434000C9434000C943400AA
:100010000C9434000C9434000C9434000C94340090
:100020000C9434000C9434000C9434000C94340080
:100030000C9434000C9434000C9434000C94340070
:100040000C9434000C9434000C9434000C94340060
:100050000C94340011241FBECFE5D4E0DEBFCDBF29
:100060000E9486050C948D050C940000DF93CF93BD
:1000700000D0CDB7DEB79A838983E981FA81818187
:100080008871883079F4A7E2B0E0E7E2F0E080819F
:100090008F778C93A7E2B0E0E7E2F0E080818064A4
:1000A0008C933EC0E981FA8181818871882379F43B
:1000B000A7E2B0E0E7E2F0E080818F778C93A7E2DF
:1000C000B0E0E7E2F0E080818F7B8C9329C0E9818A
:1000D000FA8181818871803179F4A7E2B0E0E7E2AA
:1000E000F0E0808180688C93A7E2B0E0E7E2F0E086
:1000F00080818F7B8C9314C0E981FA818181887122
:10010000883171F4A7E2B0E0E7E2F0E08081806836
:100110008C93A7E2B0E0E7E2F0E0808180648C930A
:10012000E981FA8180818F71882321F5A7E2B0E00F
:10013000E7E2F0E080818E7F8C93A7E2B0E0E7E217
:10014000F0E080818D7F8C93A7E2B0E0E7E2F0E001
:1001500080818B7F8C93A7E2B0E0E7E2F0E08081C2
:10016000877F8C93A7E2B0E0E7E2F0E080818F7EAA
:100170008C9325C1E981FA8180818F71813021F5CD
:10018000A7E2B0E0E7E2F0E0808181608C93A7E233
:10019000B0E0E7E2F0E080818D7F8C93A7E2B0E0F1
:1001A000E7E2F0E080818B7F8C93A7E2B0E0E7E2AA
:1001B000F0E08081877F8C93A7E2B0E0E7E2F0E097
:1001C00080818F7E8C93FBC0E981FA8180818F7161
:1001D000823021F5A7E2B0E0E7E2F0E080818E7F97
:1001E0008C93A7E2B0E0E7E2F0E0808182608C933C
:1001F000A7E2B0E0E7E2F0E080818B7F8C93A7E29A
:10020000B0E0E7E2F0E08081877F8C93A7E2B0E086
:10021000E7E2F0E080818F7E8C93D1C0E981FA81A2
:1002200080818F71833021F5A7E2B0E0E7E2F0E052
:10023000808181608C93A7E2B0E0E7E2F0E080810A
:1002400082608C93A7E2B0E0E7E2F0E080818B7FF0
:100250008C93A7E2B0E0E7E2F0E08081877F8C93A7
:10026000A7E2B0E0E7E2F0E080818F7E8C93A7C048
:10027000E981FA8180818F71843021F5A7E2B0E0B5
:10028000E7E2F0E080818E7F8C93A7E2B0E0E7E2C6
:10029000F0E080818D7F8C93A7E2B0E0E7E2F0E0B0
:1002A000808184608C93A7E2B0E0E7E2F0E0808197
:1002B000877F8C93A7E2B0E0E7E2F0E080818F7E59
:1002C0008C937DC0E981FA8180818F71853021F521
:1002D000A7E2B0E0E7E2F0E0808181608C93A7E2E2
:1002E000B0E0E7E2F0E080818D7F8C93A7E2B0E0A0
:1002F000E7E2F0E0808184608C93A7E2B0E0E7E27F
:10030000F0E08081877F8C93A7E2B0E0E7E2F0E045
:1003100080818F7E8C9353C0E981FA8180818F71B7
:10032000863021F5A7E2B0E0E7E2F0E080818E7F41
:100330008C93A7E2B0E0E7E2F0E0808182608C93EA
:10034000A7E2B0E0E7E2F0E0808184608C93A7E26E
:10035000B0E0E7E2F0E08081877F8C93A7E2B0E035
:10036000E7E2F0E080818F7E8C9329C0E981FA81F9
:1003700080818F71873019F5A7E2B0E0E7E2F0E005
:10038000808181608C93A7E2B0E0E7E2F0E08081B9
:1003900082608C93A7E2B0E0E7E2F0E080818460C5
:1003A0008C93A7E2B0E0E7E2F0E08081877F8C9356
:1003B000A7E2B0E0E7E2F0E080818F7E8C93E981F4
:1003C000FA8181818072882341F0A7E2B0E0E7E200
:1003D000F0E0808180628C930DC0E981FA81818197
:1003E0008072882339F4A7E2B0E0E7E2F0E0808190
:1003F0008F7D8C93E981FA818081807E8823B1F49E
:10040000A6E2B0E0E6E2F0E080818E7F8C93A6E287
:10041000B0E0E6E2F0E080818D7F8C93A6E2B0E070
:10042000E6E2F0E080818B7F8C93A7C0E981FA81BE
:100430008081807E8034B1F4A6E2B0E0E6E2F0E0B4
:1004400080818E7F8C93A6E2B0E0E6E2F0E08081CE
:1004500082608C93A6E2B0E0E6E2F0E080818B7FE0
:100460008C938BC0E981FA818081807E8036B1F4E3
:10047000A6E2B0E0E6E2F0E0808181608C93A6E243
:10048000B0E0E6E2F0E0808182608C93A6E2B0E02A
:10049000E6E2F0E080818B7F8C936FC0E981FA8186
:1004A0008081807E8038B1F4A6E2B0E0E6E2F0E040
:1004B00080818E7F8C93A6E2B0E0E6E2F0E080815E
:1004C0008D7F8C93A6E2B0E0E6E2F0E0808184606C
:1004D0008C9353C0E981FA818081807E803AB1F4A7
:1004E000A6E2B0E0E6E2F0E0808181608C93A6E2D3
:1004F000B0E0E6E2F0E080818D7F8C93A6E2B0E090
:10050000E6E2F0E0808184608C9337C0E981FA8173
:100510008081807E803CB1F4A6E2B0E0E6E2F0E0CB
:1005200080818E7F8C93A6E2B0E0E6E2F0E08081ED
:1005300082608C93A6E2B0E0E6E2F0E08081846025
:100540008C931BC0E981FA818081807E803EA9F472
:10055000A6E2B0E0E6E2F0E0808181608C93A6E262
:10056000B0E0E6E2F0E0808182608C93A6E2B0E049
:10057000E6E2F0E0808184608C93E981FA818181F8
:1005800087708823B1F4A0E5B0E0E0E5F0E0808179
:100590008F7D8C93A0E5B0E0E0E5F0E080818F7B7B
:1005A0008C93A0E5B0E0E0E5F0E080818F778C935C
:1005B000C3C0E981FA81818187708130B1F4A0E5FF
:1005C000B0E0E0E5F0E0808180628C93A0E5B0E0EF
:1005D000E0E5F0E080818F7B8C93A0E5B0E0E0E582
:1005E000F0E080818F778C93A7C0E981FA818181C7
:1005F00087708230B1F4A0E5B0E0E0E5F0E0808102
:100600008F7D8C93A0E5B0E0E0E5F0E08081806430
:100610008C93A0E5B0E0E0E5F0E080818F778C93EB
:100620008BC0E981FA81818187708330B1F4A0E5C4
:10063000B0E0E0E5F0E0808180628C93A0E5B0E07E
:10064000E0E5F0E0808180648C93A0E5B0E0E0E537
:10065000F0E080818F778C936FC0E981FA8181818E
:1006600087708430B1F4A0E5B0E0E0E5F0E080818F
:100670008F7D8C93A0E5B0E0E0E5F0E080818F7B9A
:100680008C93A0E5B0E0E0E5F0E0808180688C9399
:1006900053C0E981FA81818187708530B1F4A0E58A
:1006A000B0E0E0E5F0E0808180628C93A0E5B0E00E
:1006B000E0E5F0E080818F7B8C93A0E5B0E0E0E5A1
:1006C000F0E0808180688C9337C0E981FA81818174
:1006D00087708630B1F4A0E5B0E0E0E5F0E080811D
:1006E0008F7D8C93A0E5B0E0E0E5F0E08081806450
:1006F0008C93A0E5B0E0E0E5F0E0808180688C9329
:100700001BC0E981FA81818187708730A9F4A0E557
:10071000B0E0E0E5F0E0808180628C93A0E5B0E09D
:10072000E0E5F0E0808180648C93A0E5B0E0E0E556
:10073000F0E0808180688C93E981FA818281817008
:10074000882341F0A6E2B0E0E6E2F0E0808180623A
:100750008C930DC0E981FA8182818170882339F4FC
:10076000A6E2B0E0E6E2F0E080818F7D8C93E98143
:10077000FA8181818074882379F0AFE5B0E0EFE5FC
:10078000F0E0808180688C93A6E2B0E0E6E2F0E0E1
:10079000808188608C930DC0E981FA8181818074A9
:1007A000882339F4A6E2B0E0E6E2F0E08081877FBA
:1007B0008C93A6E2B0E0E6E2F0E0808180628C9368
:1007C0000F900F90CF91DF910895DF93CF930F9209
:1007D000CDB7DEB7A6E2B0E0E6E2F0E0808180646B
:1007E0008C93E6E2F0E08081882F90E08071907039
:1007F00095958795959587959595879595958795E1
:10080000009779F3E5E2F0E080818983A6E2B0E029
:10081000E6E2F0E0808180618C9389810F90CF9136
:10082000DF910895DF93CF9300D00F92CDB7DEB75D
:100830008983A6E2B0E0E6E2F0E080818F7D8C93D0
:10084000A6E2B0E0E6E2F0E0808180628C938981EC
:10085000282F30E03B832A838A819B818330910556
:1008600009F49BC02A813B81243031058CF48A81B4
:100870009B818130910509F448C02A813B81223057
:1008800031050CF066C08A819B810097D1F038C198
:100890002A813B812530310509F4C7C08A819B81BB
:1008A000853091050CF49DC02A813B8126303105AD
:1008B00009F4DFC08A819B818730910509F4FDC06E
:1008C0001FC1A7E2B0E0E7E2F0E080818E7F8C9369
:1008D000A7E2B0E0E7E2F0E080818D7F8C93A7E2B1
:1008E000B0E0E7E2F0E080818B7F8C93A7E2B0E09C
:1008F000E7E2F0E08081877F8C93A7E2B0E0E7E257
:10090000F0E080818F7E8C93FBC0A7E2B0E0E7E24D
:10091000F0E0808181608C93A7E2B0E0E7E2F0E054
:1009200080818D7F8C93A7E2B0E0E7E2F0E08081E8
:100930008B7F8C93A7E2B0E0E7E2F0E08081877FD5
:100940008C93A7E2B0E0E7E2F0E080818F7E8C93A9
:10095000D7C0A7E2B0E0E7E2F0E080818E7F8C9321
:10096000A7E2B0E0E7E2F0E0808182608C93A7E24A
:10097000B0E0E7E2F0E080818B7F8C93A7E2B0E00B
:10098000E7E2F0E08081877F8C93A7E2B0E0E7E2C6
:10099000F0E080818F7E8C93B3C0A7E2B0E0E7E205
:1009A000F0E0808181608C93A7E2B0E0E7E2F0E0C4
:1009B000808182608C93A7E2B0E0E7E2F0E0808182
:1009C0008B7F8C93A7E2B0E0E7E2F0E08081877F45
:1009D0008C93A7E2B0E0E7E2F0E080818F7E8C9319
:1009E0008FC0A7E2B0E0E7E2F0E080818E7F8C93D9
:1009F000A7E2B0E0E7E2F0E080818D7F8C93A7E290
:100A0000B0E0E7E2F0E0808184608C93A7E2B0E0A0
:100A1000E7E2F0E08081877F8C93A7E2B0E0E7E235
:100A2000F0E080818F7E8C936BC0A7E2B0E0E7E2BC
:100A3000F0E0808181608C93A7E2B0E0E7E2F0E033
:100A400080818D7F8C93A7E2B0E0E7E2F0E08081C7
:100A500084608C93A7E2B0E0E7E2F0E08081877FDA
:100A60008C93A7E2B0E0E7E2F0E080818F7E8C9388
:100A700047C0A7E2B0E0E7E2F0E080818E7F8C9390
:100A8000A7E2B0E0E7E2F0E0808182608C93A7E229
:100A9000B0E0E7E2F0E0808184608C93A7E2B0E010
:100AA000E7E2F0E08081877F8C93A7E2B0E0E7E2A5
:100AB000F0E080818F7E8C9323C0A7E2B0E0E7E274
:100AC000F0E0808181608C93A7E2B0E0E7E2F0E0A3
:100AD000808182608C93A7E2B0E0E7E2F0E0808161
:100AE00084608C93A7E2B0E0E7E2F0E08081877F4A
:100AF0008C93A7E2B0E0E7E2F0E080818F7E8C93F8
:100B00000F900F900F90CF91DF910895DF93CF93C7
:0E0B1000CDB7DEB7CF91DF910895F894FFCFF7
:00000001FF
