:100000000C942A000C9434000C9434000C943400AA
:100010000C9434000C9434000C9434000C94340090
:100020000C9434000C9434000C9434000C94340080
:100030000C9434000C9434000C9434000C94340070
:100040000C9434000C9434000C9434000C94340060
:100050000C94340011241FBECFE5D4E0DEBFCDBF29
:100060000E94F8040C940C050C940000DF93CF93CD
:1000700000D000D0CDB7DEB789836A838981282F6D
:1000800030E03C832B838B819C818130910549F149
:100090002B813C81223031052CF48B819C8100978F
:1000A00061F05AC02B813C812230310571F18B8186
:1000B0009C8183309105E9F14FC0ABE3B0E0EBE305
:1000C000F0E08081482F8A81282F30E081E090E0A5
:1000D000022E02C0880F991F0A94E2F7842B8C939A
:1000E0003BC0A8E3B0E0E8E3F0E08081482F8A81DC
:1000F000282F30E081E090E0022E02C0880F991F87
:100100000A94E2F7842B8C9327C0A5E3B0E0E5E3E3
:10011000F0E08081482F8A81282F30E081E090E054
:10012000022E02C0880F991F0A94E2F7842B8C9349
:1001300013C0A2E3B0E0E2E3F0E08081482F8A81BF
:10014000282F30E081E090E0022E02C0880F991F36
:100150000A94E2F7842B8C930F900F900F900F90DE
:10016000CF91DF910895DF93CF9300D000D0CDB72A
:10017000DEB789836A838981282F30E03C832B8313
:100180008B819C818130910559F12B813C812230FA
:1001900031052CF48B819C81009769F05FC02B8125
:1001A0003C812230310589F18B819C81833091051E
:1001B00009F440C053C0ABE3B0E0EBE3F0E0808172
:1001C000482F8A81282F30E081E090E0022E02C083
:1001D000880F991F0A94E2F7809584238C933EC080
:1001E000A8E3B0E0E8E3F0E08081482F8A81282F7F
:1001F00030E081E090E0022E02C0880F991F0A943F
:10020000E2F7809584238C9329C0A5E3B0E0E5E371
:10021000F0E08081482F8A81282F30E081E090E053
:10022000022E02C0880F991F0A94E2F7809584235A
:100230008C9314C0A2E3B0E0E2E3F0E08081482FA9
:100240008A81282F30E081E090E0022E02C0880FE2
:10025000991F0A94E2F7809584238C930F900F9056
:100260000F900F90CF91DF910895DF93CF9300D03F
:1002700000D0CDB7DEB789836A838981282F30E02B
:100280003C832B838B819C818130910549F12B81AB
:100290003C81223031052CF48B819C81009761F0E8
:1002A0005AC02B813C812230310571F18B819C81B8
:1002B00083309105E9F14FC0ABE3B0E0EBE3F0E050
:1002C0008081482F8A81282F30E081E090E0022E43
:1002D00002C0880F991F0A94E2F784278C933BC0D1
:1002E000A8E3B0E0E8E3F0E08081482F8A81282F7E
:1002F00030E081E090E0022E02C0880F991F0A943E
:10030000E2F784278C9327C0A5E3B0E0E5E3F0E0B3
:100310008081482F8A81282F30E081E090E0022EF2
:1003200002C0880F991F0A94E2F784278C9313C0A8
:10033000A2E3B0E0E2E3F0E08081482F8A81282F39
:1003400030E081E090E0022E02C0880F991F0A94ED
:10035000E2F784278C930F900F900F900F90CF911E
:10036000DF910895DF93CF9300D00F92CDB7DEB722
:1003700089838981282F30E03B832A838A819B816E
:1003800081309105D1F02A813B81223031052CF456
:100390008A819B81009761F01EC02A813B812230B7
:1003A000310581F08A819B818330910581F013C0F2
:1003B000EBE3F0E08FEF80830EC0E8E3F0E08FEF37
:1003C000808309C0E5E3F0E08FEF808304C0E2E3BF
:1003D000F0E08FEF80830F900F900F90CF91DF911F
:1003E0000895DF93CF9300D00F92CDB7DEB7898306
:1003F0008981282F30E03B832A838A819B81813049
:100400009105C9F02A813B81223031052CF48A8183
:100410009B81009761F01AC02A813B81223031050F
:1004200071F08A819B818330910569F00FC0EBE305
:10043000F0E010820BC0E8E3F0E0108207C0E5E3D3
:10044000F0E0108203C0E2E3F0E010820F900F9022
:100450000F90CF91DF910895DF93CF93CDB7DEB7A3
:1004600027970FB6F894DEBF0FBECDBF89836A838E
:100470004B838B81882309F06FC08981282F30E05E
:100480003F832E838E819F818130910549F12E819A
:100490003F81223031052CF48E819F81009761F0DD
:1004A000D2C02E813F812230310571F18E819F8132
:1004B00083309105E9F1C7C0AAE3B0E0EAE3F0E0D8
:1004C0008081482F8A81282F30E081E090E0022E41
:1004D00002C0880F991F0A94E2F7842B8C93B3C053
:1004E000A7E3B0E0E7E3F0E08081482F8A81282F7E
:1004F00030E081E090E0022E02C0880F991F0A943C
:10050000E2F7842B8C939FC0A4E3B0E0E4E3F0E037
:100510008081482F8A81282F30E081E090E0022EF0
:1005200002C0880F991F0A94E2F7842B8C938BC02A
:10053000A1E3B0E0E1E3F0E08081482F8A81282F39
:1005400030E081E090E0022E02C0880F991F0A94EB
:10055000E2F7842B8C9377C08B81813009F073C0D4
:100560008981282F30E03D832C838C819D818130CF
:10057000910559F12C813D81223031052CF48C817B
:100580009D81009769F05FC02C813D81223031054B
:1005900089F18C819D818330910509F440C053C05D
:1005A000AAE3B0E0EAE3F0E08081482F8A81282FB7
:1005B00030E081E090E0022E02C0880F991F0A947B
:1005C000E2F7809584238C933EC0A7E3B0E0E7E395
:1005D000F0E08081482F8A81282F30E081E090E090
:1005E000022E02C0880F991F0A94E2F78095842397
:1005F0008C9329C0A4E3B0E0E4E3F0E08081482FCD
:100600008A81282F30E081E090E0022E02C0880F1E
:10061000991F0A94E2F7809584238C9314C0A1E378
:10062000B0E0E1E3F0E08081482F8A81282F30E0BC
:1006300081E090E0022E02C0880F991F0A94E2F731
:10064000809584238C9327960FB6F894DEBF0FBE57
:10065000CDBFCF91DF910895DF93CF9300D000D02D
:1006600000D0CDB7DEB789836A838A81882371F58C
:100670008981282F30E03E832D838D819E818130BA
:100680009105C9F02D813E81223031052CF48D81F8
:100690009E81009761F01AC02D813E812230310584
:1006A00071F08D819E818330910569F00FC0EAE37E
:1006B000F0E010820BC0E7E3F0E0108207C0E4E353
:1006C000F0E0108203C0E1E3F0E010828A81813023
:1006D00091F58981282F30E03C832B838B819C818D
:1006E00081309105D1F02B813C81223031052CF4F1
:1006F0008B819C81009761F01EC02B813C81223050
:10070000310581F08B819C818330910581F013C08C
:10071000EAE3F0E08FEF80830EC0E7E3F0E08FEFD5
:10072000808309C0E4E3F0E08FEF808304C0E1E35D
:10073000F0E08FEF808326960FB6F894DEBF0FBEF1
:10074000CDBFCF91DF910895DF93CF9300D000D03C
:100750000F92CDB7DEB78A836B8319828A81282FE7
:1007600030E03D832C836C817D8161307105A9F17E
:100770008C819D818230910534F42C813D8121153D
:10078000310571F080C06C817D816230710509F4A2
:1007900041C08C819D818330910509F458C073C09C
:1007A000E9E3F0E08081482F8B81282F30E081E061
:1007B00090E0BC0102C0660F771F2A95E2F79B010B
:1007C0008B81882F90E0B90102C0759567958A9555
:1007D000E2F7CB018423898356C0E6E3F0E0808111
:1007E000482F8B81282F30E081E090E0BC0102C0CF
:1007F000660F771F2A95E2F79B018B81882F90E087
:10080000B90102C0759567958A95E2F7CB018423FB
:10081000898339C0E3E3F0E08081482F8B81282F62
:1008200030E081E090E0BC0102C0660F771F2A959E
:10083000E2F79B018B81882F90E0B90102C075958A
:1008400067958A95E2F7CB01842389831CC0E3E393
:10085000F0E08081482F8B81282F30E081E090E00C
:10086000BC0102C0660F771F2A95E2F79B018B81BE
:10087000882F90E0B90102C0759567958A95E2F7D7
:10088000CB018423898389810F900F900F900F9063
:100890000F90CF91DF910895DF93CF93CDB7DEB75F
:1008A0002B970FB6F894DEBF0FBECDBF8987898521
:1008B000282F30E03B872A878A859B8581309105E8
:1008C000A9F12A853B85223031052CF48A859B8548
:1008D000009771F084C02A853B852230310509F4E8
:1008E00043C08A859B858330910509F45BC077C03E
:1008F00018861F8215C0ABE3B0E0EBE3F0E0808127
:10090000282F81E090E00F8002C0880F991F0A9481
:10091000E2F782278C938F819885019698878F8341
:100920008F8198858830910534F359C01E821D82CD
:1009300015C0A8E3B0E0E8E3F0E08081282F81E073
:1009400090E00D8002C0880F991F0A94E2F7822779
:100950008C938D819E8101969E838D838D819E8156
:100960008830910534F33BC01C821B8215C0A5E37F
:10097000B0E0E5E3F0E08081282F81E090E00B809B
:1009800002C0880F991F0A94E2F782278C938B810B
:100990009C8101969C838B838B819C8188309105FF
:1009A00034F31DC01A82198215C0A2E3B0E0E2E35D
:1009B000F0E08081282F81E090E0098002C0880F5C
:1009C000991F0A94E2F782278C9389819A81019674
:1009D0009A83898389819A818830910534F32B9693
:1009E0000FB6F894DEBF0FBECDBFCF91DF91089553
:1009F000DF93CF93CDB7DEB781E061E00E942C0397
:100A000081E00E94B20181E067E00E94B30081E0D2
:0C0A100067E00E94B300FBCFF894FFCF1A
:00000001FF
