:100000000C942A000C9447000C9447000C94470071
:100010000C9447000C9447000C9408080C9447007B
:100020000C9447000C9447000C9447000C94470034
:100030000C9447000C9447000C9447000C94470024
:100040000C9447000C9447000C9447000C94470014
:100050000C94470011241FBECFE5D4E0DEBFCDBF16
:1000600010E0A0E6B0E0EAE0FDE202C005900D92EB
:10007000A836B107D9F713E0A8E6B0E001C01D9299
:10008000A835B107E1F70E947F000C9483160C9409
:100090000000DF93CF9300D0CDB7DEB79A8389837A
:1000A000AAE3B0E0EAE3F0E0808181608C93ABE307
:1000B000B0E0EBE3F0E0908181E089278C9388EC5D
:1000C00090E00E94500EF3CFDF93CF9300D0CDB7D6
:1000D000DEB79A838983A7E3B0E0E7E3F0E08081AD
:1000E00081608C93A8E3B0E0E8E3F0E0908181E0E8
:1000F00089278C9388EE93E00E94500EF3CFAF9245
:10010000BF92CF92DF92EF92FF920F93DF93CF9344
:10011000CDB7DEB789E490E060E070E045E550E0FF
:1001200020E030E001E0EE24FF24CC24DD24AA24EA
:10013000BB240E948C0C84E690E060E070E045E512
:1001400050E020E030E002E0EE24FF24CC24DD2467
:10015000AA24BB240E948C0C0E94C31080E090E073
:10016000CF91DF910F91FF90EF90DF90CF90BF90F4
:10017000AF900895DF93CF93CDB7DEB727970FB633
:10018000F894DEBF0FBECDBF9D838C836E834F83FB
:100190008AE190E00E9492039A83898389819A81FF
:1001A000009709F46FC080916800909169000097F2
:1001B00041F489819A8190936900809368000E943C
:1001C00021038E81823010F081E08E83E981FA81F3
:1001D000118E108EE981FA818E81868BE981FA81F8
:1001E0008F81878BE981FA818C819D8191838083C6
:1001F00089819A8102960E94280489819A810C96AD
:100200000E942804E981FA8189819A8191878087F7
:10021000E981FA8189819A81938B828B8E81282F43
:1002200030E083E090E0821B930BE981FA819587AF
:100230008487E981FA81968980916A00891728F478
:10024000E981FA81868980936A00E981FA81868949
:10025000282F30E0C901880F991F880F991F880F38
:10026000991F820F931FAC014F585F4F89819A816C
:100270009C012E5F3F4FCA01B9010E94380481E002
:100280008B8302C08FEF8B838B8127960FB6F894F8
:10029000DEBF0FBECDBFCF91DF910895DF93CF9327
:1002A00000D000D000D0CDB7DEB79C838B837E8397
:1002B0006D8320916B0030916C008B819C81820F4B
:1002C000931F9A83898380916800909169000296B8
:1002D0000E94F004E0916800F091690089819A81A0
:1002E0009383828320916B0030916C0089819A8185
:1002F0008217930770F48091970090919800209155
:100300006800309169002E5F3F4FB9010E9484045C
:100310000DC08091950090919600209168003091D9
:1003200069002E5F3F4FB9010E9484048D819E8138
:10033000009761F080916800909169009C01245FB2
:100340003F4F8D819E81B9010E94840426960FB68D
:10035000F894DEBF0FBECDBFCF91DF910895DF933C
:10036000CF9300D0CDB7DEB73AC0F894E0919E00AD
:10037000F0919F00868197819A83898389819A81F0
:100380000C960E94F004789489819A8102960E94CA
:10039000F004E981FA81968980916A00891728F42E
:1003A000E981FA81868980936A00E981FA818689E8
:1003B000282F30E0C901880F991F880F991F880FD7
:1003C000991F820F931FAC014F585F4F89819A810B
:1003D0009C012E5F3F4FCA01B9010E9438048091F1
:1003E0009900882309F0C1CF0F900F90CF91DF9132
:1003F0000895DF93CF9300D000D0CDB7DEB70E9431
:100400009D1120916D0030916E00821B930B909393
:10041000700080936F0085C080916B0090916C009C
:10042000019690936C0080936B0080916F00909187
:10043000700001979093700080936F0080916B0023
:1004400090916C00009709F064C0809195009091A4
:1004500096009A8389838091970090919800909359
:1004600096008093950089819A819093980080935B
:1004700097004FC0E0919500F09196000580F681BD
:10048000E02D868197819C838B83EB81FC81228187
:10049000338180916B0090916C008217930708F470
:1004A00040C0F8948B819C8102960E94F004EB81FD
:1004B000FC8184899589009729F08B819C810C9619
:1004C0000E94F0047894EB81FC81968980916A0007
:1004D000891728F4EB81FC81868980936A00EB817F
:1004E000FC818689282F30E0C901880F991F880F69
:1004F000991F880F991F820F931FAC014F585F4FB0
:100500008B819C819C012E5F3F4FCA01B9010E94E3
:100510003804E0919500F09196008081882309F0DD
:10052000A9CF80916F0090917000009709F074CF6F
:1005300080916B0090916C0090936E0080936D00A1
:100540000F900F900F900F90CF91DF910895DF9350
:10055000CF9300D0CDB7DEB70E94AF010E94F90162
:100560000AC080916A00882309F466C080916A00FD
:10057000815080936A0080916A00282F30E0C90181
:10058000880F991F880F991F880F991F820F931F3B
:10059000FC01EF58FF4F8081882319F380916A0096
:1005A000282F30E0C901880F991F880F991F880FE5
:1005B000991F820F931F8F589F4F9A838983E981D8
:1005C000FA810180F281E02D82819381E981FA81B3
:1005D00092838183E981FA812181328189819A81A3
:1005E00003962817390759F4E981FA810180F281CD
:1005F000E02D82819381E981FA8192838183E9816F
:10060000FA810180F281E02D8681978190936900C3
:1006100080936800E0916800F09169004081518109
:100620008091680090916900E0916800F091690004
:100630002789622FFA0109950F900F90CF91DF91D2
:100640000895DF93CF930F92CDB7DEB7198213C011
:100650008981282F30E0C901880F991F880F991FC1
:10066000880F991F820F931F8F589F4F0E94FE0380
:1006700089818F5F89838981823050F383E890E09C
:100680000E94FE038CE890E00E94FE0389E990E05E
:100690000E94FE0383E890E090939600809395007B
:1006A0008CE890E090939800809397000F90CF9102
:1006B000DF910895DF93CF9300D000D00F92CDB794
:1006C000DEB79D838C83EC81FD810580F681E02D72
:1006D000868197819B838A838A819B810C960E9465
:1006E000F0048A819B819C01245F3F4F89E990E05F
:1006F000B9010E943804EA81FB819689E091680083
:10070000F09169008689981718F081E0898301C00B
:10071000198289810F900F900F900F900F90CF91B9
:10072000DF910895DF93CF9300D000D0CDB7DEB72F
:100730009C838B831A8219820E9407118091A200E8
:100740009091A3002B813C81820F931F22E088357A
:10075000920718F52091A2003091A3008B819C8113
:10076000280F391F8091A2009091A3008217930750
:10077000A0F48091A2009091A3008C559F4F9A8382
:1007800089832091A2003091A3008B819C81820FEC
:10079000931F9093A3008093A2000E94131189815C
:1007A0009A810F900F900F900F90CF91DF91089545
:1007B000DF93CF9300D0CDB7DEB79A8389830F90B4
:1007C0000F90CF91DF910895DF93CF93CDB7DEB730
:1007D0001092A3001092A200CF91DF910895DF93B1
:1007E000CF93CDB7DEB72091A2003091A30088E56A
:1007F00092E0821B930BCF91DF910895DF93CF930B
:1008000000D0CDB7DEB79A83898389819A81039618
:10081000E981FA8192838183E981FA818FEF9FEFE9
:100820009483838389819A810396E981FA819683EF
:10083000858389819A810396E981FA8190878783EC
:10084000E981FA8110820F900F90CF91DF91089586
:10085000DF93CF9300D0CDB7DEB79A838983E98148
:10086000FA81118610860F900F90CF91DF91089535
:10087000DF93CF9300D000D000D0CDB7DEB79C83FC
:100880008B837E836D83EB81FC81818192819A834E
:100890008983E981FA8182819381ED81FE8193834D
:1008A0008283EB81FC8181819281ED81FE81958340
:1008B0008483E981FA810280F381E02D8D819E811C
:1008C000958384838D819E81E981FA8193838283DC
:1008D0008D819E81EB81FC8192838183ED81FE81FC
:1008E0008B819C8191878087EB81FC8180818F5FE8
:1008F000EB81FC81808326960FB6F894DEBF0FBE95
:10090000CDBFCF91DF910895DF93CF93CDB7DEB701
:1009100028970FB6F894DEBF0FBECDBF9E838D83A0
:1009200078876F83EF81F885808191819A838983AD
:1009300089819A812FEF8F3F920739F4ED81FE81F3
:10094000878190859C838B8318C08D819E810396BF
:100950009C838B8306C0EB81FC81828193819C8385
:100960008B83EB81FC810280F381E02D208131813A
:1009700089819A818217930770F7EB81FC818281CC
:100980009381EF81F88593838283EF81F8850280DC
:10099000F381E02D8F81988595838483EF81F8859D
:1009A0008B819C81958384838F819885EB81FC81E9
:1009B00093838283EF81F8858D819E8191878087E3
:1009C000ED81FE8180818F5FED81FE81808328969D
:1009D0000FB6F894DEBF0FBECDBFCF91DF91089563
:1009E000DF93CF9300D000D0CDB7DEB79C838B834D
:1009F000EB81FC81A281B381EB81FC8184819581B3
:100A000015969C938E931497EB81FC81A481B581FC
:100A1000EB81FC818281938113969C938E93129734
:100A2000EB81FC81808591859A838983E981FA81B4
:100A3000218132818B819C812817390741F4EB8118
:100A4000FC8184819581E981FA8192838183EB81A4
:100A5000FC8111861086E981FA8180818150E981CB
:100A6000FA8180830F900F900F900F90CF91DF91BC
:100A70000895DF93CF93CDB7DEB728970FB6F894DC
:100A8000DEBF0FBECDBF9C838B837E836D83588773
:100A90004F83EB81FC8181E180838B819C81019775
:100AA0009C838B83EB81FC8182E280838B819C81A0
:100AB00001979C838B83EB81FC8183E380838B8113
:100AC0009C8101979C838B838D819E819A838983EE
:100AD0008981EB81FC8180838B819C8101979C8340
:100AE0008B8389819A81892F99279A838983898128
:100AF000EB81FC8180838B819C8101979C838B831C
:100B0000EB81FC8110828B819C8101979C838B837C
:100B1000EB81FC8180E880838B819C8101979C83A1
:100B20008B83EB81FC8110828B819C8101979C835C
:100B30008B83EB81FC8182E080838B819C81019798
:100B40009C838B83EB81FC8183E080838B819C8100
:100B500001979C838B83EB81FC8184E080838B8174
:100B60009C8101979C838B83EB81FC8185E0808352
:100B70008B819C8101979C838B83EB81FC8186E038
:100B800080838B819C8101979C838B83EB81FC818B
:100B900087E080838B819C8101979C838B83EB8191
:100BA000FC8188E080838B819C8101979C838B836F
:100BB000EB81FC8189E080838B819C8101979C8300
:100BC0008B83EB81FC8180E180838B819C81019709
:100BD0009C838B83EB81FC8181E180838B819C8171
:100BE00001979C838B83EB81FC8182E180838B81E5
:100BF0009C8101979C838B83EB81FC8183E18083C3
:100C00008B819C8101979C838B83EB81FC8184E1A8
:100C100080838B819C8101979C838B83EB81FC81FA
:100C200085E180838B819C8101979C838B83EB8101
:100C3000FC8186E180838B819C8101979C838B83DF
:100C4000EB81FC8187E180838B819C8101979C8370
:100C50008B83EB81FC8188E180838B819C81019770
:100C60009C838B83EB81FC8189E180838B819C81D8
:100C700001979C838B83EB81FC8180E280838B8155
:100C80009C8101979C838B83EB81FC8181E2808333
:100C90008B819C8101979C838B83EB81FC8182E219
:100CA00080838B819C8101979C838B83EB81FC816A
:100CB00083E280838B819C8101979C838B838F81CE
:100CC00098859A8389838981EB81FC8180838B81DC
:100CD0009C8101979C838B8389819A81892F992795
:100CE0009A8389838981EB81FC8180838B819C81BC
:100CF00001979C838B83EB81FC8186E280838B81CF
:100D00009C8101979C838B83EB81FC8187E28083AC
:100D10008B819C8101979C838B83EB81FC8188E292
:100D200080838B819C8101979C838B83EB81FC81E9
:100D300089E280838B819C8101979C838B83EB81EB
:100D4000FC8180E380838B819C8101979C838B83D2
:100D5000EB81FC8181E380838B819C8101979C8363
:100D60008B838B819C8128960FB6F894DEBF0FBED3
:100D7000CDBFCF91DF910895DF93CF93CDB7DEB78D
:100D80000E94AC07A091FC02B091FD02CD91CDBFB5
:100D9000DD91DEBFFF91EF91DF91CF91BF91AF91D8
:100DA0009F918F917F916F915F914F913F912F9183
:100DB0001F910F91FF90EF90DF90CF90BF90AF9079
:100DC0009F908F907F906F905F904F903F902F906B
:100DD0001F900F900FBE0F90089581E0CF91DF918B
:100DE0000895DF93CF93CDB7DEB7CF91DF9108950C
:100DF0000F920FB6F8940F921F9211242F923F92E8
:100E00004F925F926F927F928F929F92AF92BF921A
:100E1000CF92DF92EF92FF920F931F932F933F9306
:100E20004F935F936F937F938F939F93AF93BF93F2
:100E3000CF93DF93EF93FF93A091FC02B091FD025B
:100E40000DB60D920EB60D920E94B212A091FC0248
:100E5000B091FD02CD91CDBFDD91DEBFFF91EF914D
:100E6000DF91CF91BF91AF919F918F917F916F91C2
:100E70005F914F913F912F911F910F91FF90EF90B4
:100E8000DF90CF90BF90AF909F908F907F906F90AA
:100E90005F904F903F902F901F900F900FBE0F903C
:100EA00008950F920FB6F8940F921F9211242F926B
:100EB0003F924F925F926F927F928F929F92AF92EA
:100EC000BF92CF92DF92EF92FF920F931F932F93D7
:100ED0003F934F935F936F937F938F939F93AF93C2
:100EE000BF93CF93DF93EF93FF93A091FC02B09158
:100EF000FD020DB60D920EB60D920E94DD110E94FC
:100F0000B212A091FC02B091FD02CD91CDBFDD9156
:100F1000DEBFFF91EF91DF91CF91BF91AF919F9194
:100F20008F917F916F915F914F913F912F911F9181
:100F30000F91FF90EF90DF90CF90BF90AF909F9078
:100F40008F907F906F905F904F903F902F901F9069
:100F50000F900FBE0F900895DF93CF9300D000D075
:100F600000D0CDB7DEB788EE93E0A0E0B0E08B8391
:100F70009C83AD83BE838B819C81AD81BE8168944F
:100F800015F8B695A795979587951694D1F78B8305
:100F90009C83AD83BE838B819C81AD81BE81019793
:100FA000A109B1098B839C83AD83BE838B81898327
:100FB0008B819C81AD81BE81892F9A2FAB2FBB275E
:100FC0008B839C83AD83BE838B818A83EBE4F0E0CB
:100FD0008A818083EAE4F0E0898180838BE08983E1
:100FE000EEE4F0E089818083E9E5F0E080818983A7
:100FF000898180618983E9E5F0E089818083269693
:101000000FB6F894DEBF0FBECDBFCF91DF9108952C
:101010000E9451071895DF93CF93CDB7DEB728977D
:101020000FB6F894DEBF0FBECDBF8F8368871A82DC
:1010300019828F81882309F48CC08FE190E00E948F
:1010400092039E838D838D819E81009709F481C0D8
:101050008F81282F30E08885882F90E0AC01249F75
:10106000C001259F900D349F900D112401969C8303
:101070008B838B819C810E949203ED81FE81918301
:101080008083ED81FE8180819181009709F45DC0AC
:10109000ED81FE81408151818F81282F30E088854C
:1010A000882F90E0BC01269FC001279F900D369F9E
:1010B000900D1124840F951FED81FE81938382830F
:1010C000ED81FE81128EED81FE8180819181ED8125
:1010D000FE8195838483ED81FE81408151818F81E2
:1010E000882F90E09C01215030408885882F90E027
:1010F000BC01269FC001279F900D369F900D1124A3
:10110000840F951FED81FE8197838683ED81FE819B
:101110008F81838FED81FE818885848FED81FE81B3
:101120008FEF858FED81FE818FEF868F8D819E8180
:1011300008960E94FE038D819E8141960E94FE03C7
:101140008D819E819A83898304C08D819E810E94B6
:10115000D80389819A8128960FB6F894DEBF0FBE16
:10116000CDBFCF91DF910895DF93CF93CDB7DEB799
:101170002C970FB6F894DEBF0FBECDBF9E838D8334
:1011800078876F835A8749872B8719820FB6F8941F
:101190000F92ED81FE81928DED81FE81838D9817F6
:1011A000D8F48D819E812F813885B9014B850E94AD
:1011B000EF0AED81FE818189882349F08D819E812E
:1011C00041960E946113813011F40E94F8060F903D
:1011D0000FBE81E08C875CC089859A85009721F4D9
:1011E0000F900FBE1C8654C08981882331F4CE0134
:1011F00002960E94C91381E089830F900FBE0E945E
:1012000007110FB6F8940F92ED81FE81858D8F3F07
:1012100019F4ED81FE81158EED81FE81868D8F3F63
:1012200019F4ED81FE81168E0F900FBECE0102964D
:101230009E01275F3F4FB9010E94E213882309F501
:101240008D819E810E94530C8823A1F08D819E8107
:10125000089629853A85B9010E9418138D819E81CF
:101260000E94CC0B0E941311882309F08FCF0E949B
:10127000F8068CCF8D819E810E94CC0B0E941311A9
:1012800085CF8D819E810E94CC0B0E9413111C86FC
:101290008C852C960FB6F894DEBF0FBECDBFCF91D4
:1012A000DF910895DF93CF93CDB7DEB729970FB6BF
:1012B000F894DEBF0FBECDBF9C838B837E836D838E
:1012C00058874F8329871982EB81FC81928DEB81AE
:1012D000FC81838D981740F58B819C812D813E8107
:1012E000B90149850E94EF0AEB81FC81868D8F3F11
:1012F00089F4EB81FC818189882399F08B819C8121
:1013000041960E946113882361F0EF81F88581E0A6
:10131000808307C0EB81FC81868D8F5FEB81FC8130
:10132000868F81E08A8301C01A828A8129960FB64E
:10133000F894DEBF0FBECDBFCF91DF910895DF934C
:10134000CF93CDB7DEB72E970FB6F894DEBF0FBEA2
:10135000CDBF98878F837A8769875C874B872D8776
:101360001B820FB6F8940F92EF81F885828D882347
:1013700009F43FC0EF81F885868197819A8389833C
:101380008F81988529853A85B9010E94840B8D85C6
:101390008823B1F4EF81F885828D8150EF81F88543
:1013A000828FEF81F88580858823F1F08F81988581
:1013B00008960E9461138130B9F40E94F80614C0A7
:1013C000EF81F88589819A8197838683EF81F885FB
:1013D0008189882349F08F81988541960E94611305
:1013E000882311F00E94F8060F900FBE81E08E87CF
:1013F0005CC08B859C85009721F40F900FBE1E86E4
:1014000054C08B81882331F4CE0104960E94C91305
:1014100081E08B830F900FBE0E9407110FB6F894E6
:101420000F92EF81F885858D8F3F19F4EF81F88554
:10143000158EEF81F885868D8F3F19F4EF81F88541
:10144000168E0F900FBECE0104969E01255F3F4F72
:10145000B9010E94E213882309F58F8198850E94C3
:10146000200C8823A1F08F81988541962B853C859F
:10147000B9010E9418138F8198850E94CC0B0E949D
:101480001311882309F06DCF0E94F8066ACF8F816F
:1014900098850E94CC0B0E94131163CF8F81988591
:1014A0000E94CC0B0E9413111E868E852E960FB6BD
:1014B000F894DEBF0FBECDBFCF91DF910895DF93CB
:1014C000CF93CDB7DEB728970FB6F894DEBF0FBE27
:1014D000CDBF9C838B837E836D8358874F83198216
:1014E000EB81FC81828D882371F18B819C812D8120
:1014F0003E81B9010E94840BEB81FC81828D815079
:10150000EB81FC81828FEB81FC81858D8F3F89F49B
:10151000EB81FC818085882399F08B819C810896E2
:101520000E946113882361F0EF81F88581E0808358
:1015300007C0EB81FC81858D8F5FEB81FC81858FFE
:1015400081E08A8301C01A828A8128960FB6F894B6
:10155000DEBF0FBECDBFCF91DF910895DF93CF9354
:1015600000D00F92CDB7DEB79B838A830FB6F89475
:101570000F92EA81FB81828D89830F900FBE898152
:101580000F900F900F90CF91DF910895DF93CF933D
:1015900000D00F92CDB7DEB79B838A83EA81FB81AF
:1015A000828D898389810F900F900F90CF91DF9169
:1015B0000895DF93CF9300D0CDB7DEB79A838983A8
:1015C000E981FA81808191810E94D80389819A8181
:1015D0000E94D8030F900F90CF91DF910895DF9371
:1015E000CF9300D000D00F92CDB7DEB79A83898316
:1015F0007C836B834D83E981FA81848D882309F490
:1016000074C08D81882399F5E981FA81648175819F
:10161000E981FA81848D482F50E02B813C81CB01F8
:10162000B9010E946416E981FA8124813581E9813A
:10163000FA81848D882F90E0820F931FE981FA81CF
:1016400095838483E981FA8124813581E981FA8156
:10165000828193812817390708F447C0E981FA810C
:1016600080819181E981FA81958384833EC0E981FB
:10167000FA8166817781E981FA81848D482F50E073
:101680002B813C81CB01B9010E946416E981FA816A
:1016900026813781E981FA81848D882F90E09095A9
:1016A00081959F4F820F931FE981FA8197838683EB
:1016B000E981FA8126813781E981FA8180819181EE
:1016C0002817390790F4E981FA8122813381E98171
:1016D000FA81848D882F90E0909581959F4F820F9D
:1016E000931FE981FA8197838683E981FA81828D4C
:1016F0008F5FE981FA81828F0F900F900F900F908A
:101700000F90CF91DF910895DF93CF9300D000D059
:10171000CDB7DEB79A8389837C836B83E981FA81B5
:1017200080819181009789F1E981FA812681378151
:10173000E981FA81848D882F90E0820F931FE981DF
:10174000FA8197838683E981FA8126813781E9814D
:10175000FA81828193812817390740F0E981FA8163
:1017600080819181E981FA8197838683E981FA8179
:1017700046815781E981FA81848D282F30E08B8161
:101780009C81BA01A9010E9464160F900F900F90DE
:101790000F90CF91DF910895DF93CF9300D0CDB715
:1017A000DEB79A8389830FB6F8940F9215C0E9814A
:1017B000FA8181898823A9F089819A8141960E94C2
:1017C0006113882311F00E944914E981FA81868D02
:1017D0008150E981FA81868FE981FA81868D181618
:1017E00034F3E981FA818FEF868F0F900FBE0FB629
:1017F000F8940F9215C0E981FA8180858823A9F0B9
:1018000089819A8108960E946113882311F00E94B1
:101810004914E981FA81858D8150E981FA81858FAA
:10182000E981FA81858D181634F3E981FA818FEF09
:10183000858F0F900FBE0F900F90CF91DF9108957D
:10184000DF93CF9300D00F92CDB7DEB79B838A830F
:101850000FB6F8940F92EA81FB81828D198288235A
:1018600011F481E089830F900FBE89810F900F9052
:101870000F90CF91DF910895DF93CF9300D00F9217
:10188000CDB7DEB79B838A83EA81FB81828D198283
:10189000882311F481E0898389810F900F900F9044
:1018A000CF91DF910895DF93CF9300D00F92CDB702
:1018B000DEB79B838A830FB6F8940F92EA81FB818F
:1018C000928DEA81FB81838D1982981711F481E052
:1018D00089830F900FBE89810F900F900F90CF9149
:1018E000DF910895DF93CF9300D00F92CDB7DEB78D
:1018F0009B838A83EA81FB81928DEA81FB81838DC0
:101900001982981711F481E0898389810F900F90D3
:101910000F90CF91DF910895AF92BF92CF92DF9257
:10192000EF92FF920F931F93DF93CF93CDB7DEB764
:1019300064970FB6F894DEBF0FBECDBF9F838E8332
:10194000798768875B874A873D872C870E87F88A67
:10195000EF86DA8AC98ABC8AAB8A8A859B852989FF
:101960003A89B9010E947C159C838B838B819C8171
:10197000009709F499C0EB81FC812789308D8A8515
:101980009B850197820F931F9A8389838B819C810A
:1019900028853985EB89FC89AA85BB85B9014E85E7
:1019A0009F018D010E945D1489819A812E813F8162
:1019B0004C855D85B9010E943905EB81FC819183DD
:1019C00080838F859889009731F0EF85F8898B8126
:1019D0009C81918380830FB6F8940F9280910103CC
:1019E0008F5F809301038091FC029091FD0200972C
:1019F00069F48B819C819093FD028093FC0280911D
:101A000001038130A9F40E94B41412C0809106032E
:101A1000882371F4E091FC02F091FD0296898E8595
:101A2000891730F08B819C819093FD028093FC029A
:101A3000EB81FC81968980910403891728F4EB815E
:101A4000FC8186898093040380910B038F5F8093D0
:101A50000B03EB81FC81968980910503891728F49B
:101A6000EB81FC81868980930503EB81FC8186896B
:101A7000282F30E0C901880F991F880F991F880F00
:101A8000991F820F931FAC01445F5C4F8B819C8137
:101A90009C012E5F3F4FCA01B9010E94380481E0CA
:101AA0008D830F900FBE02C08FEF8D838D818130AB
:101AB00071F480910603882351F0E091FC02F091CB
:101AC000FD0296898E85981710F40E94F8068D8184
:101AD00064960FB6F894DEBF0FBECDBFCF91DF91F5
:101AE0001F910F91FF90EF90DF90CF90BF90AF903C
:101AF0000895DF93CF9300D000D000D0CDB7DEB7EC
:101B00009C838B830FB6F8940F922091FC02309146
:101B1000FD028B819C818217930711F41C821B822A
:101B20008B819C81009739F48091FC029091FD0299
:101B30009E838D8304C08B819C819E838D838D8148
:101B40009E819A83898389819A8102960E94F004FA
:101B5000E981FA8184899589009729F089819A81A0
:101B60000C960E94F00489819A819C012E5F3F4F60
:101B700086E493E0B9010E9438048091FE028F5FF1
:101B80008093FE0280910B038F5F80930B030F9075
:101B90000FBE80910603882331F08B819C810097D2
:101BA00011F40E94F80626960FB6F894DEBF0FBE19
:101BB000CDBFCF91DF910895DF93CF93CDB7DEB73F
:101BC00028970FB6F894DEBF0FBECDBF9E838D83DE
:101BD00078876F8319820E940711ED81FE81208131
:101BE00031818F819885820F931F9C838B83ED8138
:101BF000FE8120813181809102039091030382173D
:101C00009307A8F4ED81FE81208131818B819C8135
:101C10008217930700F520910203309103038B8113
:101C20009C8128173907B8F481E0898314C0ED81BD
:101C3000FE81208131818B819C818217930748F03E
:101C400020910203309103038B819C81281739076F
:101C500010F481E08983ED81FE818B819C819183E9
:101C600080838981882359F08091FC029091FD0244
:101C700002960E94F0048B819C810E9433150E9481
:101C800013118A838A81882311F40E94F80628960A
:101C90000FB6F894DEBF0FBECDBFCF91DF91089590
:101CA000DF93CF9300D000D00F92CDB7DEB79D83E6
:101CB0008C8319828C819D810097D1F00E9407113D
:101CC00020910203309103038C819D81820F931F29
:101CD0009B838A838091FC029091FD0202960E9470
:101CE000F0048A819B810E9433150E94131189831D
:101CF0008981882311F40E94F8060F900F900F90AD
:101D00000F900F90CF91DF910895DF93CF93CDB7D0
:101D1000DEB727970FB6F894DEBF0FBECDBF9D8309
:101D20008C830FB6F8940F928C819D81009739F4C3
:101D30008091FC029091FD029F838E8304C08C8170
:101D40009D819F838E838E819F819B838A83EA817D
:101D5000FB81868989830F900FBE898127960FB6F4
:101D6000F894DEBF0FBECDBFCF91DF910895DF9312
:101D7000CF93CDB7DEB729970FB6F894DEBF0FBE6D
:101D8000CDBF9E838D836F8319828F81833010F046
:101D900082E08F830FB6F8940F922091FC0230916D
:101DA000FD028D819E818217930711F41E821D8290
:101DB0008D819E81009739F48091FC029091FD0203
:101DC0009987888704C08D819E81998788878885B7
:101DD00099859C838B83EB81FC8186898A839A8198
:101DE0008F81981709F465C09F818A81891738F41B
:101DF0008D819E81009749F081E0898306C08D81A5
:101E00009E81009711F481E08983EB81FC818F81B1
:101E1000868B8F81282F30E083E090E0821B930B2C
:101E2000EB81FC8195878487EB81FC81428553851A
:101E30008A81282F30E0C901880F991F880F991FC8
:101E4000880F991F820F931F845F9C4F4817590773
:101E500059F58B819C8102960E94F004EB81FC81F4
:101E6000968980910503891728F4EB81FC81868986
:101E700080930503EB81FC818689282F30E0C9011E
:101E8000880F991F880F991F880F991F820F931F22
:101E9000AC01445F5C4F8B819C819C012E5F3F4F66
:101EA000CA01B9010E9438048981813011F40E946D
:101EB000F8060F900FBE29960FB6F894DEBF0FBE3E
:101EC000CDBFCF91DF910895DF93CF9300D000D0A5
:101ED00000D0CDB7DEB79C838B830FB6F8940F92FA
:101EE0002091FC023091FD028B819C818217930727
:101EF00011F41C821B828B819C81009739F48091A4
:101F0000FC029091FD029E838D8304C08B819C8195
:101F10009E838D838D819E819A83898389819A8115
:101F200002960E94F004E981FA81848995890097DC
:101F300029F089819A810C960E94F00489819A8106
:101F40009C012E5F3F4F8FE493E0B9010E9438045B
:101F50000F900FBE8B819C810097A1F480910603A6
:101F6000882319F00E94F8060DC090914F038091CC
:101F70000103981729F41092FD021092FC0202C08E
:101F80000E94B21226960FB6F894DEBF0FBECDBFE8
:101F9000CF91DF910895DF93CF9300D000D00F92BF
:101FA000CDB7DEB79D838C831B828C819D819A8304
:101FB0008983E981FA818285938523E08F349207B2
:101FC00081F4E981FA818489958923E08D33920730
:101FD00041F0E981FA8184899589009711F481E0C3
:101FE0008B838B810F900F900F900F900F90CF915C
:101FF000DF910895DF93CF9300D000D0CDB7DEB747
:102000009C838B838B819C819A83898389819A812C
:10201000009709F44CC02091FC023091FD028981A7
:102020009A818217930709F442C00FB6F8940F9271
:1020300089819A810E94CB0F8130B9F589819A817B
:1020400002960E94F004E981FA8196898091050345
:10205000891728F4E981FA81868980930503E9814B
:10206000FA818689282F30E0C901880F991F880FCF
:10207000991F880F991F820F931FAC01445F5C4F1B
:1020800089819A819C012E5F3F4FCA01B9010E944C
:102090003804E981FA819689E091FC02F091FD0211
:1020A0008689981710F00E94F8060F900FBE0F90C7
:1020B0000F900F900F90CF91DF910895DF93CF9302
:1020C00000D000D00F92CDB7DEB79D838C831B82EA
:1020D0008C819D819A83898389819A810E94CB0F0B
:1020E000813009F047C0809107038823C9F5E98151
:1020F000FA819689E091FC02F091FD0286891B82AB
:10210000981710F081E08B8389819A8102960E9452
:10211000F004E981FA81968980910503891728F4F2
:10212000E981FA81868980930503E981FA818689AC
:10213000282F30E0C901880F991F880F991F880F39
:10214000991F820F931FAC01445F5C4F89819A8174
:102150009C012E5F3F4FCA01B9010E9438040AC09A
:1021600089819A819C01245F3F4F8DE393E0B901FF
:102170000E9438048B810F900F900F900F900F905A
:10218000CF91DF910895AF92BF92CF92DF92EF92FD
:10219000FF920F93DF93CF930F92CDB7DEB720E678
:1021A00030E083E594E1EFEFF2E0B90145E550E07E
:1021B00020E030E000E07F01CC24DD24AA24BB2411
:1021C0000E948C0C89838981813051F4F89481E0DC
:1021D0008093060310920303109202030E94BC0630
:1021E0000F90CF91DF910F91FF90EF90DF90CF9004
:1021F000BF90AF900895DF93CF93CDB7DEB7F8943B
:10220000109206030E94F106CF91DF910895DF93AB
:10221000CF93CDB7DEB7809107038F5F809307031D
:10222000CF91DF910895DF93CF9300D000D0CDB749
:10223000DEB71A820FB6F8940F928091070381508F
:102240008093070380910703882309F06CC0809175
:102250000103882309F467C0198241C0E091420359
:10226000F0914303868197819C838B838B819C8132
:102270000C960E94F0048B819C8102960E94F004CF
:10228000EB81FC81968980910503891728F4EB8105
:10229000FC81868980930503EB81FC818689282F48
:1022A00030E0C901880F991F880F991F880F991F67
:1022B000820F931F845F9C4F2B813C812E5F3F4F89
:1022C000B9010E943804EB81FC819689E091FC02FF
:1022D000F091FD028689981710F081E08983809142
:1022E0003D03882309F0BACF80910803882371F059
:1022F00007C00E94DD11809108038150809308037C
:10230000809108038823A9F781E08983898181303E
:1023100021F080910903813031F481E08A831092A9
:1023200009030E94F8060F900FBE8A810F900F904C
:102330000F900F90CF91DF910895DF93CF9300D04E
:10234000CDB7DEB70FB6F8940F928091020390914B
:1023500003039A8389830F900FBE89819A810F901E
:102360000F90CF91DF910895DF93CF9300D00F921C
:10237000CDB7DEB7198280910203909103039B834E
:102380008A838A819B810F900F900F90CF91DF916C
:102390000895DF93CF93CDB7DEB780910103CF913E
:1023A000DF910895DF93CF93CDB7DEB78091FF0221
:1023B00090910003CF91DF910895DF93CF9300D0E8
:1023C00000D000D0CDB7DEB780910703882309F095
:1023D000BBC0809102039091030301969093030385
:1023E0008093020380910203909103030097D1F53B
:1023F0008091390390913A039C838B8380913B03B6
:1024000090913C0390933A03809339038B819C8194
:1024100090933C0380933B0380910A038F5F8093EA
:102420000A03E0913903F0913A038081882339F45B
:102430008FEF9FEF909366008093650013C0E0914B
:102440003903F0913A030580F681E02D868197816A
:102450009E838D83ED81FE818281938190936600BE
:102460008093650020910203309103038091650001
:10247000909166002817390708F46BC0E091390382
:10248000F0913A038081882339F48FEF9FEF909386
:102490006600809365005DC0E0913903F0913A03D6
:1024A0000580F681E02D868197819E838D83ED8165
:1024B000FE81828193819A838983209102033091E6
:1024C000030389819A812817390738F489819A8111
:1024D00090936600809365003CC08D819E8102963A
:1024E0000E94F004ED81FE8184899589009729F08E
:1024F0008D819E810C960E94F004ED81FE8196896B
:1025000080910503891728F4ED81FE8186898093E7
:102510000503ED81FE818689282F30E0C901880FEF
:10252000991F880F991F880F991F820F931FAC0165
:10253000445F5C4F8D819E819C012E5F3F4FCA019D
:10254000B9010E9438049ACF809108038F5F80936D
:10255000080326960FB6F894DEBF0FBECDBFCF910D
:10256000DF910895DF93CF9300D0CDB7DEB7809190
:102570000703882349F081E08093090354C08091C8
:10258000050381508093050380910503282F30E0D7
:10259000C901880F991F880F991F880F991F820FF3
:1025A000931FFC01E45FFC4F8081882341F38091FD
:1025B0000503282F30E0C901880F991F880F991F44
:1025C000880F991F820F931F845F9C4F9A83898382
:1025D000E981FA810180F281E02D82819381E98194
:1025E000FA8192838183E981FA8121813281898113
:1025F0009A8103962817390759F4E981FA810180F5
:10260000F281E02D82819381E981FA819283818335
:10261000E981FA810180F281E02D86819781909392
:10262000FD028093FC020F900F90CF91DF910895EF
:10263000DF93CF9300D000D000D0CDB7DEB79C831E
:102640008B837E836D834B815C818091FC029091B2
:10265000FD029C01245F3F4FCA01B9010E9484041E
:102660008091FC029091FD0202960E94F0048D81FF
:102670009E812FEF8F3F920769F48091FC02909129
:10268000FD029C012E5F3F4F8FE493E0B9010E9451
:1026900038040EC020910203309103038D819E8186
:1026A000820F931F9A83898389819A810E943315AF
:1026B00026960FB6F894DEBF0FBECDBFCF91DF9147
:1026C0000895DF93CF9300D000D00F92CDB7DEB73F
:1026D0009D838C83EC81FD810580F681E02D8681D0
:1026E00097819B838A838A819B810C960E94F00448
:1026F00080910703882361F58A819B8102960E945D
:10270000F004EA81FB81968980910503891728F4FA
:10271000EA81FB81868980930503EA81FB818689B2
:10272000282F30E0C901880F991F880F991F880F43
:10273000991F820F931FAC01445F5C4F8A819B817C
:102740009C012E5F3F4FCA01B9010E9438040AC0A4
:102750008A819B819C01245F3F4F8DE393E0B90107
:102760000E943804EA81FB819689E091FC02F09195
:10277000FD028689981718F081E0898301C01982CB
:1027800089810F900F900F900F900F90CF91DF9154
:102790000895DF93CF9300D0CDB7DEB79A838983B6
:1027A00080910A03E981FA818083809102039091EC
:1027B0000303E981FA81928381830F900F90CF9177
:1027C000DF910895DF93CF9300D000D00F92CDB763
:1027D000DEB79B838A837D836C830FB6F8940F9258
:1027E000EC81FD81808191812FEF8F3F920711F461
:1027F000198244C0EA81FB81908180910A03981775
:1028000071F0EA81FB8121813281809102039091F4
:1028100003038217930718F081E089832FC020916A
:10282000020330910303EA81FB8181819281281B9D
:10283000390BEC81FD818081918128173907E0F403
:10284000EC81FD8140815181EA81FB8121813281CE
:102850008091020390910303B901681B790BCB01AE
:10286000840F951FEC81FD81918380838A819B81F8
:102870000E94C913198202C081E089830F900FBEA4
:1028800089810F900F900F900F900F90CF91DF9153
:102890000895DF93CF93CDB7DEB781E0809309032E
:1028A000CF91DF910895DF93CF9300D0CDB7DEB7FE
:1028B0009A8389830E94F514FDCF0F931F93DF93B2
:1028C000CF93CDB7DEB729970FB6F894DEBF0FBE12
:1028D000CDBF9A8389837C836B834D833F832E8313
:1028E0001987088789819A8149962B813C81B90192
:1028F00048E050E00E947416E981FA8110A28D81AF
:10290000833010F082E08D83E981FA818D81868B9E
:1029100089819A8102960E94280489819A810C9665
:102920000E942804E981FA8189819A8191878087B0
:102930008D81282F30E083E090E0821B930BE981AA
:10294000FA8195878487E981FA8189819A81938BBD
:10295000828B29960FB6F894DEBF0FBECDBFCF9104
:10296000DF911F910F910895DF93CF930F92CDB711
:10297000DEB7198213C08981282F30E0C901880F82
:10298000991F880F991F880F991F820F931F845FCB
:102990009C4F0E94FE0389818F5F898389818330E8
:1029A00050F387E293E00E94FE0380E393E00E94ED
:1029B000FE038DE393E00E94FE0386E493E00E9411
:1029C000FE038FE493E00E94FE0387E293E090937E
:1029D0003A038093390380E393E090933C03809320
:1029E0003B030F90CF91DF910895DF93CF9300D0F9
:1029F0000F92CDB7DEB78091FE02882371F10E945D
:102A00000711809146031B82882311F481E08B8398
:102A10000E9413118B81882301F50FB6F8940F9251
:102A2000E0914B03F0914C03868197819A838983CF
:102A300089819A8102960E94F0048091010381505D
:102A4000809301038091FE0281508093FE020F90DB
:102A50000FBE89819A810E9423160F900F900F90CC
:102A6000CF91DF910895DF93CF9300D0CDB7DEB73C
:102A70009A838983E091FC02F091FD0289819A8119
:102A800093838283209102033091030389819A8189
:102A90008217930770F480913B0390913C0320913F
:102AA000FC023091FD022E5F3F4FB9010E94840469
:102AB0001EC04091390350913A038091FC029091DD
:102AC000FD029C012E5F3F4FCA01B9010E948404A0
:102AD000209165003091660089819A818217930761
:102AE00030F489819A8190936600809365000F90FD
:102AF0000F90CF91DF910895DF93CF93CDB7DEB7DD
:102B000028970FB6F894DEBF0FBECDBF9C838B8392
:102B10007E836D8381E290E00E9492039A83898391
:102B200089819A81009769F18D819E81009739F49E
:102B30008B819C810E94920398878F8304C08D8132
:102B40009E8198878F83E981FA818F819885908F04
:102B5000878BE981FA818789908D009739F4898183
:102B60009A810E94D8031A8219820BC0E981FA81E6
:102B70008789908D2B813C8165EA70E0A9010E94D4
:102B80006D1689819A8128960FB6F894DEBF0FBE24
:102B9000CDBFCF91DF910895DF93CF9300D000D0C8
:102BA000CDB7DEB79A8389831C821B820AC08981D4
:102BB0009A8101969A8389838B819C8101969C835B
:102BC0008B83E981FA818081853A89F38B819C81AD
:102BD0000F900F900F900F90CF91DF910895DF939A
:102BE000CF93CDB7DEB729970FB6F894DEBF0FBEEF
:102BF000CDBF9F838E838E819F81009739F4809112
:102C0000FC029091FD029987888704C08E819F8184
:102C100099878887888599859D838C83EC81FD8140
:102C20008789908D9B838A838A819B810E94CC15A2
:102C30008983898129960FB6F894DEBF0FBECDBF78
:102C4000CF91DF910895DF93CF9300D0CDB7DEB75A
:102C50009A838983E981FA818789908D0E94D803BC
:102C600089819A810E94D8030F900F90CF91DF91B4
:102C70000895DF93CF9300D0CDB7DEB78091FC02EB
:102C80009091FD029A83898389819A810F900F9098
:102C9000CF91DF910895DF93CF930F92CDB7DEB739
:102CA00080910603882311F4198209C080910703DB
:102CB000882319F481E0898302C082E089838981B5
:102CC0000F90CF91DF910895FB01DC0102C00190CC
:102CD0000D9241505040D8F70895DC0101C06D932A
:102CE00041505040E0F70895FB01DC014150504055
:102CF00048F001900D920020C9F701C01D9241508B
:0A2D00005040E0F70895F894FFCF6B
:082D0A0049444C4500FFFF00A5
:00000001FF
