:100000000C942A000C9434000C9434000C943400AA
:100010000C9434000C9434000C9434000C94340090
:100020000C9434000C9434000C9434000C94340080
:100030000C9434000C9434000C9434000C94340070
:100040000C9434000C9434000C9434000C94340060
:100050000C94340011241FBECFE5D4E0DEBFCDBF29
:100060000E943A030C947C030C940000813091F0C0
:10007000813028F08230C9F0833061F521C02BB384
:1000800081E090E002C0880F991F6A95E2F7282B63
:100090002BBB089528B381E090E002C0880F991F20
:1000A0006A95E2F7282B28BB089525B381E090E0FC
:1000B00002C0880F991F6A95E2F7282B25BB089587
:1000C00022B381E090E002C0880F991F6A95E2F7A1
:1000D000282B22BB0895813099F0813028F082309E
:1000E000D9F0833081F524C02BB381E090E002C0C9
:1000F000880F991F6A95E2F7809582238BBB08953C
:1001000028B381E090E002C0880F991F6A95E2F75A
:100110008095822388BB089525B381E090E002C0DA
:10012000880F991F6A95E2F78095822385BB089511
:1001300022B381E090E002C0880F991F6A95E2F730
:100140008095822382BB0895813091F0813028F020
:100150008230C9F0833061F521C02BB381E090E09B
:1001600002C0880F991F6A95E2F728272BBB0895D4
:1001700028B381E090E002C0880F991F6A95E2F7EA
:10018000282728BB089525B381E090E002C0880F9E
:10019000991F6A95E2F7282725BB089522B381E0CD
:1001A00090E002C0880F991F6A95E2F7282722BBCA
:1001B0000895813049F0813028F0823039F0833061
:1001C00041F516C029B303C026B301C023B381E0B3
:1001D00090E0062E02C0880F991F0A94E2F730E0E3
:1001E0008223932302C0959587956A95E2F7089537
:1001F00020B381E090E0062E02C0880F991F0A9478
:10020000E2F730E08223932302C0959587956A95A3
:10021000E2F70895813051F0813028F0823049F0C2
:10022000833061F409C08FEF8BBB08958FEF88BBDB
:1002300008958FEF85BB08958FEF82BB08958130BD
:1002400049F0813028F0823039F0833041F406C023
:100250001BBA089518BA089515BA089512BA0895E8
:10026000813031F1813038F0823009F43EC0833082
:1002700009F072C056C0442321F0413009F06CC02F
:100280000CC02AB381E090E002C0880F991F6A95E4
:10029000E2F7809582238ABB08952AB381E090E03B
:1002A00002C0880F991F6A95E2F7282B2ABB089590
:1002B000442321F0413009F04FC00CC027B381E046
:1002C00090E002C0880F991F6A95E2F7809582231B
:1002D00087BB089527B381E090E002C0880F991F83
:1002E0006A95E2F7282B27BB0895442319F0413083
:1002F00099F50CC024B381E090E002C0880F991FEB
:100300006A95E2F78095822384BB089524B381E047
:1003100090E002C0880F991F6A95E2F7282B24BB52
:100320000895442319F04130B9F40CC021B381E0A1
:1003300090E002C0880F991F6A95E2F780958223AA
:1003400081BB089521B381E090E002C0880F991F1E
:100350006A95E2F7282B21BB08958130E1F08130C6
:1003600030F0823061F1833009F050C03CC040E091
:1003700050E061E070E02BB3CB01042E02C0880F87
:10038000991F0A94E2F728272BBB4F5F5F4F483035
:10039000510589F7089540E050E061E070E028B32E
:1003A000CB01042E02C0880F991F0A94E2F7282778
:1003B00028BB4F5F5F4F4830510589F7089540E0F3
:1003C00050E061E070E025B3CB01042E02C0880F3D
:1003D000991F0A94E2F7282725BB4F5F5F4F4830EB
:1003E000510589F7089540E050E061E070E022B3E4
:1003F000CB01042E02C0880F991F0A94E2F7282728
:1004000022BB4F5F5F4F4830510589F70895813017
:1004100049F0813028F0823039F0833041F406C051
:100420006BBB089568BB089565BB089562BB0895D2
:10043000813001F1813030F08230A1F1833009F058
:100440005EC047C0662321F0613009F058C009C082
:10045000D098D198D298D398D498D598D698D79840
:100460000895D09AD19AD29AD39AD49AD59AD69AF4
:10047000D79A0895662321F0613009F040C009C081
:10048000B898B998BA98BB98BC98BD98BE98BF98D0
:100490000895B89AB99ABA9ABB9ABC9ABD9ABE9A6C
:1004A000BF9A0895662319F0613049F509C0A098F4
:1004B000A198A298A398A498A598A698A7980895FB
:1004C000A09AA19AA29AA39AA49AA59AA69AA79A40
:1004D0000895662319F0613091F409C088988998CD
:1004E0008A988B988C988D988E988F980895889A72
:1004F000899A8A9A8B9A8C9A8D9A8E9A8F9A089555
:100500001F93182F80E060E00E94360080E061E0D9
:100510000E946B0081E0612F0E94070280E062E090
:100520000E94360084EF91E00197F1F780E062E0ED
:100530000E946B001F910895CF92DF92EF92FF927D
:100540000F931F93CF93DF938C01FC010190002048
:10055000E9F73197E81BC0E0D0E0EE2EFF2484EDF0
:10056000C82E80E3D82E0AC0F801EC0FFD1F808151
:100570000E948002C6010197F1F72196CE15DF0592
:100580009CF3DF91CF911F910F91FF90EF90DF903F
:10059000CF9008951F93182F80E060E00E946B00B9
:1005A00080E061E00E946B0081E0612F0E94070201
:1005B00080E062E00E94360084EF91E00197F1F75D
:1005C00080E062E00E946B001F910895882319F07B
:1005D000813009F4605C862F80680E94CA02089509
:1005E0000F931F9381E061E00E94180280E060E0B9
:1005F00041E00E94300180E061E041E00E94300172
:1006000080E062E041E00E94300188E893E129E166
:1006100030E0F9013197F1F70197D9F788E30E94AB
:10062000CA0204EF11E0C8010197F1F78CE00E94C3
:10063000CA02C8010197F1F781E00E94CA02C8010D
:100640000197F1F71F910F91089594E096BF82B939
:1006500084EC86BF0895882311F484EC01C084E8FB
:1006600086BF06B607FEFDCF83B1089506B607FE26
:10067000FDCF089580E060E041E00E94300180E01D
:1006800061E041E00E94300180E062E041E00E94D0
:10069000300181E060E041E00E94300181E061E0F2
:1006A00041E00E94300181E062E041E00E943001BF
:1006B00081E063E041E00E94300181E064E041E0DC
:1006C0000E94300181E065E041E00E94300181E05C
:1006D00066E041E00E9430010E94F0028EE60E9436
:1006E000800280E10E9425030E94360381E00E947F
:0C06F0002B030E948002FFCFF894FFCF84
:00000001FF
