:100000000C9434000C9449000C9449000C94490061
:100010000C9449000C9449000C9449000C9449003C
:100020000C9449000C9449000C9449000C9449002C
:100030000C9449000C9449000C9449000C9449001C
:100040000C9449000C9449000C9449000C9449000C
:100050000C9449000C9449000C9449000C944900FC
:100060000C9449000C94490011241FBECFEFD8E036
:10007000DEBFCDBF11E0A0E0B1E0ECE5FFE102C0E2
:1000800005900D92A830B107D9F70E94130F0C9478
:10009000AC0F0C940000EF92FF920F931F937B0123
:1000A0008C0120E030E040E05FE40E944B038823B5
:1000B0008CF0C801B70120E030E040E05FE40E942E
:1000C000C3010E94AB039B01AC0120503040404073
:1000D000504806C0C801B7010E94AB039B01AC01A8
:1000E000B901CA011F910F91FF90EF900895A0E010
:1000F000B0E0EDE7F0E00C946C0FDC012B01FA01AD
:100100009C91923008F439C1EB018881823008F467
:1001100033C1943069F4843009F02FC111969C9159
:1001200011978981981709F428C1A0E0B1E025C191
:10013000843009F421C18230A9F4923009F01DC144
:100140009A01AD0188E0EA010990AE01E901099246
:100150009E018150C1F7E201898111969C9189230A
:10016000818308C1923009F407C112962D903C900A
:100170001397EB018A819B811496AD90BD90CD9031
:10018000DC901797EC80FD800E811F819101281B68
:10019000390BB90137FF04C066277727621B730B41
:1001A000603271050CF061C0121613066CF5370150
:1001B0004801062E04C096948794779467940A9415
:1001C000D2F721E030E040E050E004C0220F331FBE
:1001D000441F551F6A95D2F721503040404050408F
:1001E0002E213F2140235123211531054105510581
:1001F00021F021E030E040E050E079018A01E6287A
:10020000F728082919293CC0232BD1F1260E371EC7
:1002100035014601062E04C096948794779467941E
:100220000A94D2F721E030E040E050E004C0220F11
:10023000331F441F551F6A95D2F72150304040406C
:1002400050402A213B214C215D21211531054105DA
:10025000510521F021E030E040E050E059016A0111
:10026000A628B728C828D9280BC0821593052CF0DA
:100270001C01AA24BB24650103C0EE24FF248701CE
:1002800011969C91D20111968C91981709F445C052
:10029000992339F0A80197012A193B094C095D09F6
:1002A00006C0A60195012E193F09400B510B57FDC1
:1002B00008C0118233822282248335834683578388
:1002C0001DC081E081833382228288279927DC0147
:1002D000821B930BA40BB50B84839583A683B783F2
:1002E0000DC0220F331F441F551F248335834683BF
:1002F00057838281938101979383828324813581FF
:1003000046815781DA01C9010197A109B1098F5FBF
:100310009F4FAF4FBF4328F30BC09183338222829C
:10032000EA0CFB1C0C1D1D1DE482F582068317835D
:1003300083E08083248135814681578157FF1AC02D
:10034000C901AA2797FDA095BA2F81709070A0705F
:10035000B0705695479537952795822B932BA42BF4
:10036000B52B84839583A683B7838281938101967D
:1003700093838283DF0101C0D201CD01CDB7DEB707
:10038000E2E10C94880FA0E2B0E0E9ECF1E00C941B
:10039000780F69837A838B839C832D833E834F837D
:1003A0005887E9E0EE2EF12CEC0EFD1ECE010196F1
:1003B000B7010E94D4048E010F5E1F4FCE01059637
:1003C000B8010E94D4048A8991E089278A8BC701E9
:1003D000B801AE01475E5F4F0E9477000E94FF03A5
:1003E000A096E6E00C94940FA0E2B0E0EAEFF1E012
:1003F0000C94780F69837A838B839C832D833E834F
:100400004F835887F9E0EF2EF12CEC0EFD1ECE0144
:100410000196B7010E94D4048E010F5E1F4FCE01DA
:100420000596B8010E94D404C701B801AE01475E29
:100430005F4F0E9477000E94FF03A096E6E00C94B5
:10044000940FA0E2B0E0E7E2F2E00C946C0F698355
:100450007A838B839C832D833E834F835887CE0181
:100460000196BE01675F7F4F0E94D404CE010596BE
:10047000BE016F5E7F4F0E94D4049985923088F050
:1004800089898230C8F0943019F4823051F404C064
:10049000843029F4923081F480E091E0C6C092303B
:1004A00049F420E09A858A89981321E02A87CE01B1
:1004B0000996BBC0823049F420E09A858A89981356
:1004C00021E02A8BCE014196B0C02D843E844F841A
:1004D00058886D887E888F88988CEE24FF24870149
:1004E000AA24BB24650140E050E060E070E0E0E059
:1004F000F0E0C10181709070892BE9F0E60CF71CE7
:10050000081D191D9A01AB012A0D3B1D4C1D5D1DD7
:1005100080E090E0A0E0B0E0E614F70408051905DB
:1005200020F481E090E0A0E0B0E0BA01A901480F1A
:10053000591F6A1F7B1FAA0CBB1CCC1CDD1C97FE1D
:1005400008C081E090E0A0E0B0E0A82AB92ACA2A59
:10055000DB2A3196E032F10549F0660C771C881CE5
:10056000991C5694479437942794C3CFFA85EA8907
:100570002B893C898B859C85280F391F2E5F3F4F27
:1005800017C0CA0181709070892B61F0169507958C
:10059000F794E79480E090E0A0E0B0E8E82AF92A38
:1005A0000A2B1B2B76956795579547952F5F3F4FE5
:1005B00077FDE7CF0CC0440F551F661F771F17FD4F
:1005C0004160EE0CFF1C001F111F215030404030D5
:1005D00090E0590790E0690790E4790760F32B8F6A
:1005E0003C8FDB01CA018F779070A070B0708034AF
:1005F0009105A105B10561F447FD0AC0E114F104BC
:100600000105110529F0405C5F4F6F4F7F4F407827
:100610001A8EFE1711F081E08A8F4D8F5E8F6F8FDB
:1006200078A383E0898FCE0149960E94FF03A096AC
:10063000E2E10C94880FA8E1B0E0E1E2F3E00C9471
:10064000780F69837A838B839C832D833E834F83CA
:10065000588789E0E82EF12CEC0EFD1ECE010196A4
:10066000B7010E94D4048E010F5E1F4FCE01059684
:10067000B8010E94D4048985823040F08989823093
:1006800028F0C701B8010E944C0501C08FEF6896A1
:10069000E6E00C94940FA8E1B0E0E1E5F3E00C94FF
:1006A000780F69837A838B839C832D833E834F836A
:1006B000588789E0E82EF12CEC0EFD1ECE01019644
:1006C000B7010E94D4048E010F5E1F4FCE01059624
:1006D000B8010E94D4048985823040F08989823033
:1006E00028F0C701B8010E944C0501C08FEF689641
:1006F000E6E00C94940FA8E1B0E0E1E8F3E00C949C
:10070000780F69837A838B839C832D833E834F8309
:10071000588789E0E82EF12CEC0EFD1ECE010196E3
:10072000B7010E94D4048E010F5E1F4FCE010596C3
:10073000B8010E94D4048985823040F089898230D2
:1007400028F0C701B8010E944C0501C081E06896FD
:10075000E6E00C94940FACE0B0E0E1EBF3E00C9435
:100760007C0F69837A838B839C83CE010196BE01C3
:100770006B5F7F4F0E94D4048D81823061F18230A3
:1007800050F1843021F48E81882351F12EC02F81C5
:10079000388537FD20C06E812F3131051CF066236E
:1007A000F9F023C08EE190E0821B930B29853A85F6
:1007B0004B855C8504C056954795379527958A9556
:1007C000D2F76623B1F050954095309521953F4F73
:1007D0004F4F5F4F0EC020E030E040E050E009C0D6
:1007E0002FEF3FEF4FEF5FE704C020E030E040E045
:1007F00050E8B901CA012C96E2E00C94980FDF9200
:10080000EF92FF920F931F93FC01E480F580068125
:100810001781D1808081823048F480E090E0A0E1AF
:10082000B0E0E82AF92A0A2B1B2BA5C0843009F472
:100830009FC0823021F4EE24FF24870105C0E1141B
:10084000F1040105110519F4E0E0F0E096C06281C1
:1008500073819FEF623879070CF05BC022E83FEFAD
:10086000261B370B2A3131052CF020E030E040E028
:1008700050E02AC0B801A701022E04C07695679502
:10088000579547950A94D2F781E090E0A0E0B0E058
:1008900004C0880F991FAA1FBB1F2A95D2F7019782
:1008A000A109B1098E219F21A023B1230097A105A1
:1008B000B10521F081E090E0A0E0B0E09A01AB0149
:1008C000282B392B4A2B5B2BDA01C9018F779070CB
:1008D000A070B07080349105A105B10539F427FFEF
:1008E00009C0205C3F4F4F4F5F4F04C0215C3F4F1A
:1008F0004F4F5F4FE0E0F0E02030A0E03A07A0E08B
:100900004A07A0E45A0710F0E1E0F0E079018A011B
:1009100027C06038710564F5FB01E158FF4FD8012D
:10092000C7018F779070A070B07080349105A105D9
:10093000B10539F4E7FE0DC080E490E0A0E0B0E03E
:1009400004C08FE390E0A0E0B0E0E80EF91E0A1FBB
:100950001B1F17FF05C016950795F794E79431966E
:1009600087E016950795F794E7948A95D1F705C027
:10097000EE24FF248701EFEFF0E06E2F67956627E6
:100980006795902F9F77D794DD24D7948E2F8695E7
:10099000492F462B582F5D29B701CA011F910F918E
:1009A000FF90EF90DF900895FC01DB0140815181C1
:1009B0002281622F6F7770E0221F2227221F9381EE
:1009C000892F880F822B282F30E0991F9927991F94
:1009D00011969C93119721153105A9F541155105E3
:1009E0006105710511F482E037C082E89FEF13962C
:1009F0009C938E9312979A01AB0167E0220F331FED
:100A0000441F551F6A95D1F783E08C930DC0220FC8
:100A1000331F441F551F12968D919C911397019778
:100A200013969C938E931297203080E0380780E0D5
:100A3000480780E4580758F314962D933D934D933F
:100A40005C93179708952F3F310579F441155105AF
:100A50006105710519F484E08C93089564FF03C067
:100A600081E08C9312C01C9210C02F573040139617
:100A70003C932E93129783E08C9387E0440F551F8D
:100A8000661F771F8A95D1F7706414964D935D9316
:100A90006D937C93179708951F93DC01FB019C9144
:100AA000923008F447C08081823008F443C094300B
:100AB00051F411961C91843099F58181682F70E072
:100AC000611B71093FC0843021F0923031F48230D3
:100AD000B9F18181882389F12DC011961C9111975C
:100AE0008230F1F081811817D9F412962D913C9142
:100AF0001397828193818217930794F028173907FF
:100B0000BCF014968D919D910D90BC91A02D2481E7
:100B1000358146815781281739074A075B0718F442
:100B2000112341F00AC082179307A407B50740F4C8
:100B3000112319F061E070E005C06FEF7FEF02C094
:100B400060E070E0CB011F910895DF93CF9300D058
:100B500000D0CDB7DEB789836A838981282F30E042
:100B60003C832B838B819C8182309105F1F02B811A
:100B70003C812330310569F18B819C818130910565
:100B8000D9F5A5E2B0E0E5E2F0E08081482F8A8166
:100B9000282F30E081E090E0022E02C0880F991FDC
:100BA0000A94E2F7842B8C9327C0A8E2B0E0E8E235
:100BB000F0E08081482F8A81282F30E081E090E0AA
:100BC000022E02C0880F991F0A94E2F7842B8C939F
:100BD00013C0ABE2B0E0EBE2F0E08081482F8A8105
:100BE000282F30E081E090E0022E02C0880F991F8C
:100BF0000A94E2F7842B8C930F900F900F900F9034
:100C0000CF91DF910895DF93CF9300D000D0CDB77F
:100C1000DEB789836A838981282F30E03C832B8368
:100C20008B819C818230910501F12B813C812330A5
:100C3000310581F18B819C818130910509F03EC0A5
:100C4000A5E2B0E0E5E2F0E08081482F8A81282F1C
:100C500030E081E090E0022E02C0880F991F0A94D4
:100C6000E2F7809584238C9329C0A8E2B0E0E8E203
:100C7000F0E08081482F8A81282F30E081E090E0E9
:100C8000022E02C0880F991F0A94E2F780958423F0
:100C90008C9314C0ABE2B0E0EBE2F0E08081482F2F
:100CA0008A81282F30E081E090E0022E02C0880F78
:100CB000991F0A94E2F7809584238C930F900F90EC
:100CC0000F900F90CF91DF910895DF93CF9300D0D5
:100CD00000D0CDB7DEB789836A838981282F30E0C1
:100CE0003C832B838B819C8182309105F1F02B8199
:100CF0003C812330310569F18B819C8181309105E4
:100D0000D9F5A5E2B0E0E5E2F0E08081482F8A81E4
:100D1000282F30E081E090E0022E02C0880F991F5A
:100D20000A94E2F784278C9327C0A8E2B0E0E8E2B7
:100D3000F0E08081482F8A81282F30E081E090E028
:100D4000022E02C0880F991F0A94E2F784278C9321
:100D500013C0ABE2B0E0EBE2F0E08081482F8A8183
:100D6000282F30E081E090E0022E02C0880F991F0A
:100D70000A94E2F784278C930F900F900F900F90B6
:100D8000CF91DF910895DF93CF9300D000D00F92E1
:100D9000CDB7DEB78A836B838A81282F30E03D830D
:100DA0002C834C815D814230510551F18C819D81B4
:100DB0008330910509F442C02C813D8121303105F9
:100DC00009F059C0E3E2F0E08081482F50E08B81C8
:100DD000282F30E081E090E002C0880F991F2A950B
:100DE000E2F79A01282339238B81882F90E0A9010B
:100DF00002C0559547958A95E2F7CA0189833BC0A1
:100E0000E6E2F0E08081482F50E08B81282F30E02F
:100E100081E090E002C0880F991F2A95E2F79A01BD
:100E2000282339238B81882F90E0A90102C0559592
:100E300047958A95E2F7CA0189831DC0E9E2F0E08F
:100E40008081482F50E08B81282F30E081E090E0B6
:100E500002C0880F991F2A95E2F79A0128233923A7
:100E60008B81882F90E0A90102C0559547958A95FE
:100E7000E2F7CA01898389810F900F900F900F903C
:100E80000F90CF91DF910895DF93CF9300D00F9211
:100E9000CDB7DEB789838981282F30E03B832A8351
:100EA0008A819B818230910579F02A813B812330B0
:100EB000310579F08A819B818130910571F4E5E2F9
:100EC000F0E08FEF808309C0E8E2F0E08FEF8083ED
:100ED00004C0EBE2F0E08FEF80830F900F900F9053
:100EE000CF91DF910895DF93CF9300D00F92CDB7CC
:100EF000DEB789838981282F30E03B832A838A816A
:100F00009B818230910571F02A813B81233031052C
:100F100069F08A819B818130910559F4E5E2F0E026
:100F2000108207C0E8E2F0E0108203C0EBE2F0E0DC
:100F300010820F900F900F90CF91DF910895DF9363
:100F4000CF93CDB7DEB72B970FB6F894DEBF0FBEA9
:100F5000CDBF89836A834B838981282F30E03B870B
:100F60002A878A859B858230910509F444C02A85A9
:100F70003B852330310509F476C08A859B85813015
:100F8000910509F0A7C08B81282F30E03987288789
:100F900088859985009731F028853985213031057C
:100FA000B1F098C0A4E2B0E0E4E2F0E08081482F24
:100FB0008A81282F30E081E090E0022E02C0880F65
:100FC000991F0A94E2F7809584238C9383C0A4E24E
:100FD000B0E0E4E2F0E08081482F8A81282F30E001
:100FE00081E090E0022E02C0880F991F0A94E2F778
:100FF000842B8C936FC08B81282F30E03F832E830E
:101000008E819F81009731F02E813F812130310503
:10101000B1F060C0A7E2B0E0E7E2F0E08081482FE5
:101020008A81282F30E081E090E0022E02C0880FF4
:10103000991F0A94E2F7809584238C934BC0A7E212
:10104000B0E0E7E2F0E08081482F8A81282F30E08D
:1010500081E090E0022E02C0880F991F0A94E2F707
:10106000842B8C9337C08B81282F30E03D832C83D9
:101070008C819D81009731F02C813D81213031059B
:10108000B1F028C0AAE2B0E0EAE2F0E08081482FA7
:101090008A81282F30E081E090E0022E02C0880F84
:1010A000991F0A94E2F7809584238C9313C0AAE2D7
:1010B000B0E0EAE2F0E08081482F8A81282F30E01A
:1010C00081E090E0022E02C0880F991F0A94E2F797
:1010D000842B8C932B960FB6F894DEBF0FBECDBF3A
:1010E000CF91DF910895DF93CF93CDB7DEB72997E6
:1010F0000FB6F894DEBF0FBECDBF8F838F81282F30
:1011000030E039872887888599858230910551F1AB
:10111000288539852330310509F442C088859985B1
:101120008130910509F059C01E821D8215C0A5E2CB
:10113000B0E0E5E2F0E08081282F81E090E00D80D2
:1011400002C0880F991F0A94E2F782278C938D8141
:101150009E8101969E838D838D819E81883091052D
:1011600034F33BC01C821B8215C0A8E2B0E0E8E269
:10117000F0E08081282F81E090E00B8002C0880F92
:10118000991F0A94E2F782278C938B819C810196A8
:101190009C838B838B819C818830910534F31DC0A7
:1011A0001A82198215C0ABE2B0E0EBE2F0E0808178
:1011B000282F81E090E0098002C0880F991F0A94CF
:1011C000E2F782278C9389819A8101969A83898399
:1011D00089819A818830910534F329960FB6F89465
:1011E000DEBF0FBECDBFCF91DF910895DF93CF93C8
:1011F00000D000D0CDB7DEB789836A838981282FDC
:1012000030E03C832B838B819C818230910579F087
:101210002B813C812330310579F08B819C81813099
:10122000910571F4E5E2F0E08A81808309C0E8E28B
:10123000F0E08A81808304C0EBE2F0E08A81808361
:101240000F900F900F900F90CF91DF910895DF9343
:10125000CF93CDB7DEB72A970FB6F894DEBF0FBE97
:10126000CDBF89836A838981282F30E03A87298717
:1012700089859A858230910509F48DC029853A8542
:101280002330310509F408C189859A85813091059B
:1012900009F082C18A81282F30E038872F838F811F
:1012A0009885009731F02F81388521303105D1F1B3
:1012B00073C1A4E2B0E0E4E2F0E080818E7F8C9321
:1012C000A4E2B0E0E4E2F0E080818D7F8C93A4E2C0
:1012D000B0E0E4E2F0E080818B7F8C93A4E2B0E0A8
:1012E000E4E2F0E08081877F8C93A4E2B0E0E4E266
:1012F000F0E080818F7E8C93A4E2B0E0E4E2F0E045
:1013000080818F7D8C93A4E2B0E0E4E2F0E0808104
:101310008F7B8C93A4E2B0E0E4E2F0E080818F77F1
:101320008C933AC1A4E2B0E0E4E2F0E08081816015
:101330008C93A4E2B0E0E4E2F0E0808182608C93E0
:10134000A4E2B0E0E4E2F0E0808184608C93A4E267
:10135000B0E0E4E2F0E0808188608C93A4E2B0E049
:10136000E4E2F0E0808180618C93A4E2B0E0E4E20A
:10137000F0E0808180628C93A4E2B0E0E4E2F0E0EF
:10138000808180648C93A4E2B0E0E4E2F0E08081AC
:1013900080688C9301C18A81282F30E03E832D83A1
:1013A0008D819E81009731F02D813E812130310564
:1013B000D1F1F2C0A7E2B0E0E7E2F0E080818E7FF9
:1013C0008C93A7E2B0E0E7E2F0E080818D7F8C9320
:1013D000A7E2B0E0E7E2F0E080818B7F8C93A7E2A8
:1013E000B0E0E7E2F0E08081877F8C93A7E2B0E095
:1013F000E7E2F0E080818F7E8C93A7E2B0E0E7E245
:10140000F0E080818F7D8C93A7E2B0E0E7E2F0E02E
:1014100080818F7B8C93A7E2B0E0E7E2F0E08081EF
:101420008F778C93B9C0A7E2B0E0E7E2F0E080816B
:1014300081608C93A7E2B0E0E7E2F0E08081826017
:101440008C93A7E2B0E0E7E2F0E0808184608C93C7
:10145000A7E2B0E0E7E2F0E0808188608C93A7E249
:10146000B0E0E7E2F0E0808180618C93A7E2B0E039
:10147000E7E2F0E0808180628C93A7E2B0E0E7E2EF
:10148000F0E0808180648C93A7E2B0E0E7E2F0E0D6
:10149000808180688C9380C08A81282F30E03C83D3
:1014A0002B838B819C81009731F02B813C812130F3
:1014B0003105D1F171C0AAE2B0E0EAE2F0E080814A
:1014C0008E7F8C93AAE2B0E0EAE2F0E080818D7F2B
:1014D0008C93AAE2B0E0EAE2F0E080818B7F8C930B
:1014E000AAE2B0E0EAE2F0E08081877F8C93AAE292
:1014F000B0E0EAE2F0E080818F7E8C93AAE2B0E077
:10150000EAE2F0E080818F7D8C93AAE2B0E0EAE22B
:10151000F0E080818F7B8C93AAE2B0E0EAE2F0E019
:1015200080818F778C9338C0AAE2B0E0EAE2F0E0E5
:10153000808181608C93AAE2B0E0EAE2F0E08081F1
:1015400082608C93AAE2B0E0EAE2F0E080818460FD
:101550008C93AAE2B0E0EAE2F0E0808188608C93AC
:10156000AAE2B0E0EAE2F0E0808180618C93AAE236
:10157000B0E0EAE2F0E0808180628C93AAE2B0E021
:10158000EAE2F0E0808180648C93AAE2B0E0EAE2D3
:10159000F0E0808180688C932A960FB6F894DEBFC5
:1015A0000FBECDBFCF91DF910895DF93CF93CDB71D
:1015B000DEB72F970FB6F894DEBF0FBECDBF8F8773
:1015C00081E060E00E94030681E061E00E94030682
:1015D00083E06F850E94F60881E062E00E94A50525
:1015E00080E090E0A0E0B0E48B879C87AD87BE8769
:1015F0006B857C858D859E8520E030E04AE753E44D
:101600000E942102DC01CB018F839887A987BA87CA
:101610006F81788589859A8520E030E040E85FE336
:101620000E947B0388232CF481E090E09E838D83CD
:101630003FC06F81788589859A8520E03FEF4FE72D
:1016400057E40E941B0318164CF56B857C858D852D
:101650009E8520E030E040E251E40E942102DC015E
:10166000CB01BC01CD010E944B00DC01CB019E836C
:101670008D830FC089E190E09C838B838B819C815B
:101680000197F1F79C838B838D819E8101979E83C7
:101690008D838D819E81009769F714C06F81788555
:1016A00089859A850E944B00DC01CB019E838D8346
:1016B0008D819E819A83898389819A810197F1F72F
:1016C0009A83898381E062E00E9403062F960FB619
:1016D000F894DEBF0FBECDBFCF91DF910895DF93A9
:1016E000CF93CDB7DEB72F970FB6F894DEBF0FBEFE
:1016F000CDBF8F8781E060E00E94A50581E061E0B9
:101700000E94030683E06F850E94F60881E062E094
:101710000E94A50580E090E0A0E0B0E48B879C8764
:10172000AD87BE876B857C858D859E8520E030E00A
:101730004AE753E40E942102DC01CB018F839887A2
:10174000A987BA876F81788589859A8520E030E0FE
:1017500040E85FE30E947B0388232CF481E090E063
:101760009E838D833FC06F81788589859A8520E02F
:101770003FEF4FE757E40E941B0318164CF56B85AB
:101780007C858D859E8520E030E040E251E40E941A
:101790002102DC01CB01BC01CD010E944B00DC0128
:1017A000CB019E838D830FC089E190E09C838B8366
:1017B0008B819C810197F1F79C838B838D819E8126
:1017C00001979E838D838D819E81009769F714C058
:1017D0006F81788589859A850E944B00DC01CB0159
:1017E0009E838D838D819E819A83898389819A814D
:1017F0000197F1F79A83898381E062E00E940306F2
:101800002F960FB6F894DEBF0FBECDBFCF91DF91FC
:101810000895DF93CF93CDB7DEB7E8970FB6F8946E
:10182000DEBF0FBECDBF83E061E00E94270981E0EB
:1018300060E041E00E949F0781E061E041E00E949A
:101840009F0781E062E041E00E949F0780E090E016
:10185000AAEFB3E48DAB9EABAFABB8AF6DA97EA9D9
:101860008FA998AD20E030E04AE753E40E942102BE
:10187000DC01CB0189AB9AABABABBCAB69A97AA954
:101880008BA99CA920E030E040E85FE30E947B0345
:1018900088232CF481E090E098AB8FA73FC069A922
:1018A0007AA98BA99CA920E03FEF4FE757E40E945B
:1018B0001B0318164CF56DA97EA98FA998AD20E0E1
:1018C00030E040E251E40E942102DC01CB01BC0186
:1018D000CD010E944B00DC01CB0198AB8FA70FC05C
:1018E00089E190E09EA78DA78DA59EA50197F1F7B0
:1018F0009EA78DA78FA598A9019798AB8FA78FA5B5
:1019000098A9009769F714C069A97AA98BA99CA91D
:101910000E944B00DC01CB0198AB8FA78FA598A943
:101920009CA78BA78BA59CA50197F1F79CA78BA7DC
:1019300088E30E94D50A80E090E0A0E0B0E48FA3A5
:1019400098A7A9A7BAA76FA178A589A59AA520E00D
:1019500030E04AE753E40E942102DC01CB018BA373
:101960009CA3ADA3BEA36BA17CA18DA19EA120E0F1
:1019700030E040E85FE30E947B0388232CF481E0A1
:1019800090E09AA389A33FC06BA17CA18DA19EA1E9
:1019900020E03FEF4FE757E40E941B0318164CF579
:1019A0006FA178A589A59AA520E030E040E251E436
:1019B0000E942102DC01CB01BC01CD010E944B0041
:1019C000DC01CB019AA389A30FC089E190E098A321
:1019D0008F8F8F8D98A10197F1F798A38F8F89A191
:1019E0009AA101979AA389A389A19AA1009769F75F
:1019F00014C06BA17CA18DA19EA10E944B00DC01B3
:101A0000CB019AA389A389A19AA19E8F8D8F8D8DD9
:101A10009E8D0197F1F79E8F8D8F8CE00E94D50AE5
:101A200080E090E0A0E0B0E4898F9A8FAB8FBC8F0C
:101A3000698D7A8D8B8D9C8D20E030E04AE753E4F0
:101A40000E942102DC01CB018D8B9E8BAF8BB88F66
:101A50006D897E898F89988D20E030E040E85FE3D2
:101A60000E947B0388232CF481E090E09C8B8B8B7D
:101A70003FC06D897E898F89988D20E03FEF4FE7C9
:101A800057E40E941B0318164CF5698D7A8D8B8DD7
:101A90009C8D20E030E040E251E40E942102DC0114
:101AA000CB01BC01CD010E944B00DC01CB019C8B22
:101AB0008B8B0FC089E190E09A8B898B89899A89F9
:101AC0000197F1F79A8B898B8B899C8901979C8B65
:101AD0008B8B8B899C89009769F714C06D897E89EF
:101AE0008F89988D0E944B00DC01CB019C8B8B8BE6
:101AF0008B899C89988B8F878F8598890197F1F7BF
:101B0000988B8F8781E00E94D50A80E090E0A0E06A
:101B1000B0E48B879C87AD87BE876B857C858D8580
:101B20009E8520E030E04AE753E40E942102DC0178
:101B3000CB018F839887A987BA876F81788589853C
:101B40009A8520E030E040E85FE30E947B03882331
:101B50002CF481E090E09E838D833FC06F81788577
:101B600089859A8520E03FEF4FE757E40E941B03E9
:101B700018164CF56B857C858D859E8520E030E0C0
:101B800040E251E40E942102DC01CB01BC01CD0105
:101B90000E944B00DC01CB019E838D830FC089E145
:101BA00090E09C838B838B819C810197F1F79C83D0
:101BB0008B838D819E8101979E838D838D819E81F4
:101BC000009769F714C06F81788589859A850E948E
:101BD0004B00DC01CB019E838D838D819E819A8396
:101BE000898389819A810197F1F79A838983E8969D
:101BF0000FB6F894DEBF0FBECDBFCF91DF91089531
:101C0000DF93CF9300D000D00F92CDB7DEB78A8399
:101C10006B838A81282F30E03D832C838C819D81CA
:101C2000009731F02C813D812130310521F006C033
:101C30008B81898303C08B81805C898389818068E3
:101C4000898389810E94D50A0F900F900F900F9081
:101C50000F90CF91DF910895DF93CF93CDB7DEB78B
:101C600063970FB6F894DEBF0FBECDBF9B8B8A8BF8
:101C70008A899B890E94A30F898B188A1F8681C03D
:101C80002F8538898A899B89FC01E20FF31F8081A7
:101C90000E946F0B80E090E0A8E4B2E48B879C8701
:101CA000AD87BE876B857C858D859E8520E030E085
:101CB0004AE753E40E942102DC01CB018F8398871D
:101CC000A987BA876F81788589859A8520E030E079
:101CD00040E85FE30E947B0388232CF481E090E0DE
:101CE0009E838D833FC06F81788589859A8520E0AA
:101CF0003FEF4FE757E40E941B0318164CF56B8526
:101D00007C858D859E8520E030E040E251E40E9494
:101D10002102DC01CB01BC01CD010E944B00DC01A2
:101D2000CB019E838D830FC089E190E09C838B83E0
:101D30008B819C810197F1F79C838B838D819E81A0
:101D400001979E838D838D819E81009769F714C0D2
:101D50006F81788589859A850E944B00DC01CB01D3
:101D60009E838D838D819E819A83898389819A81C7
:101D70000197F1F79A8389838F8598890196988BCB
:101D80008F878989282F30E08F859889821793075C
:101D90000CF476CF63960FB6F894DEBF0FBECDBFBE
:101DA000CF91DF910895DF93CF930F92CDB7DEB738
:101DB0008983ECEBF0E084E08083EAEBF0E089815A
:101DC0008083ECEBF0E084EC80830F90CF91DF9187
:101DD0000895DF93CF930F92CDB7DEB789838981C2
:101DE000882329F4ECEBF0E084EC808304C0ECEB76
:101DF000F0E084E88083ECEBF0E080818823DCF77E
:101E0000EBEBF0E080810F90CF91DF910895DF93AD
:101E1000CF93CDB7DEB7ECEBF0E080818823DCF721
:101E2000CF91DF910895DF93CF930F92CDB7DEB7B7
:101E30008EE6898381E060E041E00E949F0781E0B7
:101E400061E041E00E949F0781E062E041E00E9482
:101E50009F0783E060E041E00E949F0783E061E02C
:101E600041E00E949F0783E062E041E00E949F07FB
:101E700083E063E041E00E949F0783E064E041E08B
:101E80000E949F0783E065E041E00E949F0783E096
:101E900066E041E00E949F070E94090C89810E9430
:101EA0006F0B80E10E94D30E0E94070F81E00E9419
:101EB000E90E898389810E946F0B81E00E94E90EFF
:101EC000898389810E946F0B81E00E94E90E8983DA
:101ED00089810E946F0BFFCF2F923F924F925F92AA
:101EE0006F927F928F929F92AF92BF92CF92DF922A
:101EF000EF92FF920F931F93CF93DF93CDB7DEB78F
:101F0000CA1BDB0B0FB6F894DEBF0FBECDBF099422
:101F10002A88398848885F846E847D848C849B8479
:101F2000AA84B984C884DF80EE80FD800C811B8187
:101F3000AA81B981CE0FD11D0FB6F894DEBF0FBEB6
:101F4000CDBFED010895FC0101900020E9F78095D7
:0C1F500090958E0F9F1F0895F894FFCF0E
:081F5C0000000000000000007D
:00000001FF
